:10000000F03F0000110000100000000000000000A0
:10001000F8B529204006006A022108432921490633
:1000200008620AF09BF929204006006A02218843F1
:100030002921490608620AF0EDF80C480AF0F9F89F
:100040000B48456800260746002404E0A000385805
:10005000A1007050641C282CF8D300204560A847EC
:1000600000BF00BF00BF00BFF8BD000080C3C901D2
:10007000000400100000000000000000000000006C
:100080000000000000000000000000000000000070
:100090000000000000000000000000000000000060
:1000A0000000000000000000000000000000000050
:1000B0000000000000000000000000000000000040
:1002C000000300000000000000000000000000002B
:1002D0000003000000B900000003000000B90000A6
:1002E00000C000000004000001000100020016012F
:1002F00001015649454E4E41000000000300000038
:1003000000000000000000000000000000000000ED
:1003100000000000000000000000000000000000DD
:1003200000000000000000000000000000000000CD
:1003300000000000000000000000000000000000BD
:1003400000000000000000000000000000000000AD
:10035000000000000000000000000000000000009D
:10036000000000000000000000000000000000008D
:10037000000000000000000000000000000000007D
:10038000000000000000000000000000000000006D
:10039000000000000000000000000000000000005D
:1003A000000000000000000000000000000000004D
:1003B000000000000000000000000000000000003D
:1003C000000000000000000000000000000000002D
:1003D000000000000000000000000000000000001D
:1003E000000000000000000000000000000000000D
:1003F00000000000000000000000000000000000FD
:10040000F03F000057090010000000005F090010D5
:1004100000000000000000000000000000000000DC
:1004200000000000000000000000000000000000CC
:100430000000000000000000D505001083810010BE
:100440000B34000055090010550900105509001023
:1004500055090010419C00105F9C00109F2A00105D
:1004600055090010550900105509001055090010D4
:1004700055090010C1160010C12A0010E32A00100F
:10048000052B0010550900105509001055090010E2
:1004900055090010550900105509001055090010A4
:1004A0005509001055090010550900105509001094
:1004B0005509001055090010550900105509001084
:1004C00003B40148019001BDA534000003B4014804
:1004D000019001BDC100000003B40148019001BDBD
:1004E000F100000000F002F800F040F80CA030C865
:1004F000083824182D18A246671EAB4654465D46A0
:10050000AC4201D100F032F87E460F3E0FCCB64629
:100510000126334200D0FB1AA246AB4633431847AC
:1005200008C2000068C20000103A02D378C878C13F
:10053000FAD8520701D330C830C101D504680C6025
:10054000704700000023002400250026103A01D344
:1005500078C1FBD8520700D330C100D50B6070477B
:100560001FB5C046C0461FBD10B510BD0BF0C4F886
:100570001146FFF7F5FF00F00AFA0BF0DCF803B4C0
:10058000FFF7F2FF03BC00F03CFA000002B472B6C1
:1005900001780131017062B60139080002BC704770
:1005A00002B472B601780139017062B6080002BC6B
:1005B0007047000062B6704772B670471C3880F30F
:1005C00009887047014802490160704704ED00E066
:1005D00000000010114B1968114A1268914216D0A0
:1005E000EFF3098020380860F0C044464D46564677
:1005F0005F46F0C01A6010681030F0C8A046A946E7
:10060000B246BB462038F0C8103080F30988054B4D
:10061000002018700420404200470000B40200008F
:10062000B0020000A0020000FCB40022002300245D
:10063000002500260027062902D4FCC00639FAE767
:10064000002902D004C00139FAE7FCBC7047000061
:1006500070B505460C46164602E00FCC0FC5103E9D
:10066000102EFAD2082E02D303CC03C5083E042E66
:1006700007D301CC01C5361F03E021782970641C23
:100680006D1C761EF9D270BD30B503460020B04C0B
:1006900001465A569200121952684D00AA40491C50
:1006A0001043C9B21029F4D330BDF8B504460E4644
:1006B00017461D46102110460AF0C4FD06988078A2
:1006C000A04254D80699C978A14250D3201AC1B289
:1006D0000024E878AA7803E0091A1319C9B2DCB239
:1006E0008842F9D9601E10182B7AC0B2834204D810
:1006F000981AC4B2601E1018C0B2002E0AD0012E83
:100700000FD0202833D3202C1FD22022121BD2B28C
:1007100000241DE0102C2AD2102800D30F20002224
:1007200023E0202C23D2102821D3102C04D2102215
:10073000121BD2B2002402E0103CE4B200222028B6
:1007400001D30F2011E0103803E00022203CE4B276
:100750002038C0B209E0EB786E685343F318CB5CE5
:100760003B55641C521CE4B2D2B28442F3D9F8BDAA
:1007700078B56C4603462170002062701C0101466A
:100780006E46012573567F22002B04DB1A1B520094
:1007900052B2002A02DB2B4693401843491C49B24F
:1007A0000229EFDB78BDF0B517460024012205468B
:1007B0000E468A5687B031572046FFF7D9FF05907D
:1007C0002E2D08D2102D02D26800012484400598F5
:1007D000204307B0F0BD3A78AA4211D87878A842F1
:1007E0000ED30020717A03E0A400641C401CC0B248
:1007F0008142F9D8A81A4843410020468840E8E7DA
:10080000334601AA002128460097FFF74EFF01A8B2
:10081000FFF73AFF05990843DBE7F0B517460122D9
:1008200005460E4600248A5687B031570120FFF74F
:100830009FFF05902E2D08D2103D102D02D268008A
:100840000124844005982043C3E73A78AA4217D888
:100850007878A84214D30020717A03E0A400641CC5
:10086000401CC0B28142F9D8A81A4843410020393F
:1008700002D420468840ACE749422046C840A8E759
:10088000334601AA012128460097FFF70EFF01A871
:10089000FFF7FAFE059908439BE7F0B517460122DA
:1008A00005460E4600248A5687B031570220FFF7CE
:1008B0005FFF05902E2D08D2203D0E2D02D268003C
:1008C000012484400598204383E73A78AA4217D848
:1008D0007878A84214D30020717A03E0A400641C45
:1008E000401CC0B28142F9D8A81A4843410040399F
:1008F00002D4204688406CE749422046C84068E759
:10090000334601AA022128460097FFF7CEFE01A830
:10091000FFF7BAFE059908435BE770B504460D463C
:10092000007AA1784018401E0AF09AFC617A0646C7
:1009300008462D300AF08AFC2E30A870E178714309
:100940004118491EE9702E212970401E687070BD43
:10095000E0B90010FEE710B5FFF7C4FD10BD10B5FB
:100960001D4809F066FC10BD10B507F05AF81B4B86
:100970001B4A00211B4807F084FA194A1A4B521CE3
:1009800000211A4807F07DFA07F06EF810BD10B587
:1009900009F057FCFFF794FD09F008FD09F054FB3E
:1009A00009F02CFD09F0EAF809F0AEF900F0BAFC04
:1009B0000F48012301780F481A46007809F092FE8B
:1009C00008F060F9012200210B480AF0E5F8FFF772
:1009D000CBFF012010BD0000A02E6300C009000065
:1009E00009900100A314001000100000551700101A
:1009F0001FBE00101EBE0010F07F00400A460346D6
:100A00007047FEE7FE4A10705160704710B5002233
:100A1000D2430921FB480AF0F0FB10BDF0B5417844
:100A200001290FD0002300220178FF24F64D9446BF
:100A3000002905D001290BD0022907D0032903D0B2
:100A40002A4605E0FF23EEE7002401E0FF218C4663
:100A500000210F468D05ED4E2D0CAD196F62AB6276
:100A60006C602A626646AE60491C89B20629F1D3E1
:100A70008178E74AC9005358E1494C682402240AA6
:100A8000234329246406A36380780978C000801872
:100A900040684907490F0843DE490860F0BDDE4A57
:100AA00000218B00C3581360491C0C29F9D37047EF
:100AB00010B5DA4B00218A008458D2181462491C00
:100AC000C9B20A29F7D310BD10B5028BD249521E04
:100AD00040310A60428B521E4A60026A521E8A608E
:100AE000036AC269D21A521ECA60C289CA49521E1A
:100AF00080314A614269521E8A6143690269D21A91
:100B0000521ECA61828C521E0A62C28C521E4A62F6
:100B1000C26A521E8A62C36A826AD21A521ECA62AC
:100B20000388BF4A5B1E136343885B1E536383685D
:100B30005B1E9363846843681B1B5B1ED363028E3A
:100B4000521E0A63428E521E4A63826B521E8A6391
:100B5000426B806B101A401EC863012010BDF3B5B4
:100B600081B00826AF4DB04801990AF06FFB4708E5
:100B70007F007D2174423846C90048430090AB484D
:100B8000AB496043401800990AF06AFB0199081AC2
:100B900000D54042A84202DA264605460836641CC3
:100BA000082CECDB029806703846FEBDFEB5054603
:100BB00008460E4624300C460F4601910090303610
:100BC00018340C3768883E31FFF7C9FF6060400871
:100BD000A060287829794018608001202080297A37
:100BE0006A7A8A1801998A6061884A0001994A8064
:100BF00061684A0801994A60297A521C521A01997F
:100C00000A8030800F207080A068801E000970600C
:100C100069790AF01BFB70604008B0606979A068D0
:100C20000AF014FB01462A7860685043401C0918FA
:100C30000122AA5670685043401C091A0098491EA8
:100C400001806979A0680AF001FB014600984160C3
:100C5000B1680098491C816028796979484341004E
:100C6000009841806068B86060686288411C521CCE
:100C70005043A0300818786065684019401E294626
:100C80000AF0E4FA6843786061688908401878607F
:100C900060887880FEBD604A10B5803A116B0446CA
:100CA0008079002800D08020090E090601437120B8
:100CB00001431163E1683C20085EA27A904205D0AE
:100CC0002046FFF773FFE168A07A8887E068FFF7A6
:100CD000FBFEE0682030807F09F011FB10BD30B5CD
:100CE000028B4D49521E40310A60428B521E4A60AF
:100CF000026A521E8A60036AC269D21A521ECA6010
:100D0000C2894549521E80314A614269521E8A6138
:100D100043690269D21A521ECA61828C521E0A624B
:100D2000C28C521E4A62C26A521E8A62C36A826AB8
:100D3000D21A521ECA620388394A5B1E1363438863
:100D40005B1E536383685B1E9363846843681B1B4D
:100D50005B1ED363038E5B1E0B63438E5B1E4B6374
:100D6000836B5B1E8B63846B436B1B1B5B1ECB63B4
:100D7000838F2B495B1E40390B60C38F5B1E4B601A
:100D8000436C5B1E8B60446C036C1B1B5B1ECB6057
:100D9000034640331C89641E0C615C89641E4C61EF
:100DA000046D641E8C61056DC46C641B641ECC6193
:100DB0009C8A641E0C62DB8A5B1E4B62C36D5B1EE9
:100DC0008B62C46D836D1B1B5B1ECB62034660335D
:100DD0001C88641E0C635C88641E4C63846E641EF5
:100DE0008C63856E446E641B641ECC639989491EB6
:100DF0001160D989491E5160416F491E916019E007
:100E0000000200000410000055550000000040538F
:100E1000F0B9001040000052C000005540030055DA
:100E2000C001005540420F00409C0000400D0300EF
:100E3000005A6202016F406F081A401ED060012004
:100E400030BDF0B5054687B008460A4624303C322E
:100E50006B4607C3243003900C3004900C3005908F
:100E60000E460C460F460C300690303618340C37C0
:100E700068887A31FFF773FE60604008A0602878C8
:100E80002979401860808020208061688A08019953
:100E9000163A8A6061884A0001994A8061684A0866
:100EA00001994A6001998B220A806168029A890837
:100EB0009160029A61885180029A61685160029A39
:100EC0001080606881080398816003986188418080
:100ED000039861684160606841080398803101802F
:100EE0006068810804981439816060884100049822
:100EF00041806068410804984160606881080498F6
:100F00008A31018060684108059881606188059890
:100F100041800598616841606068810805986C317E
:100F20000180606841080698816006986188418068
:100F30000698616841606068800841004118069821
:100F40006C310180012030800F207080A068801EED
:100F50000009706069790AF079F970604008B06042
:100F60006979A0680AF072F901462A7860685043EE
:100F7000803009180122AA5670685043401C091A93
:100F80000098491E01806979A0680AF05FF901465E
:100F900000984160B1680098491C8160287969799E
:100FA00048434100009841806068B860606862888A
:100FB0000146521C42434008803110180818A030E6
:100FC000786065684019401E29460AF03FF9684379
:100FD000786061688908401878600120788007B0DF
:100FE000F0BD10B5C94A0446116B8079002800D0C5
:100FF0008020C74B19400143C64801431163E16893
:101000007820425EA07A824206D02046FFF719FF80
:10101000E068A17A60300183E068FFF760FEE06875
:101020006030807E09F06BF910BDBB4902680A612F
:1010300042680A6280684862704730B54179FF2291
:1010400049041202891A8279B04B11435963B3499A
:1010500000240C6102792146002A02D0012A1DD108
:1010600009E000200122451E9A639D63801C80B226
:10107000FF28F9D912E0002107E002684D00525B19
:101080009A6352429A63491C89B242798A42F4D8DF
:101090001006FF21C00D0131081A81B2002002E0C4
:1010A0009C63401C80B28842FAD330BD7CB50646B2
:1010B0006946FFF732FC994D0024E0B26A4631469A
:1010C000FFF771FB2860E0B26A463146FFF7A5FBE7
:1010D0006860E0B26A463146FFF7DFFBA860641C37
:1010E000802CEAD37CBD894A7F21C0321161DDE7C3
:1010F000864B10B50022803394000C591C61521CA1
:10110000142AF9D3814A002140328B00C35813635B
:10111000491C0C29F9D310BD01684068E8E770B597
:101120007D4C0021403C8B001A181B19156D1D6069
:10113000D26D1A61491CC9B20329F4D35523734CEB
:1011400000211B0640348A008558D61835631518CF
:10115000AD6A12191560491CC9B20A29F3D370BDD2
:1011600070B50446C0686E4DC068002811D0682173
:101170000222095CAA56914201D1090609D5002133
:10118000FFF7CDFFE068C0686030007A4006400E8F
:10119000A870E068806800280ED00122017AAA5663
:1011A000914201D1090607D5FFF7B6FFE0688068D4
:1011B000007A4006400E6870E068806900280ED012
:1011C0000522817AAA56914201D1090607D5FFF777
:1011D0008AFFE0688069807A4006400E6871E068A6
:1011E000C06900280ED00622C179AA56914201D1C9
:1011F000090607D5FFF721FFE068C069C0794006FE
:10120000400EA871E068006A00280ED00722017B1A
:10121000AA56914201D1090607D5FFF706FFE068FB
:10122000006A007B4006400EE871207C0228E068DE
:101230005BD0006800280ED00022817AAA56914225
:1012400001D1090607D5FFF726FDE0680068807A1E
:101250004006400E2870E0680069002811D028215F
:101260000322095CAA56914201D1090609D5002141
:10127000FFF71EFCE06800692030007A4006400E4F
:10128000E870E0684069002810D030210422095C31
:10129000AA56914201D1090608D5FFF700FCE06883
:1012A00040692030007C4006400E2871E068406AAA
:1012B00000280ED00822C178AA56914201D1090611
:1012C00007D5FFF7ABFBE068406AC0784006400EE8
:1012D0002872204608F067FC207C022814D00320E6
:1012E00008F02AFF08F0A7FC70BD40680028B2D0C3
:1012F0000022817AAA56914201D10906ABD5FFF7A7
:1013000070FEE0684068A2E70420E9E7400000556D
:101310000FE00FE0F11F00008003005500020055B0
:101320000410000010B5012007498007FFF77CF981
:10133000064900200870064A0121117005490880FD
:101340000549088010BD0000FC1F00000A020000D3
:1013500020020000101000003402000010B5002828
:1013600001D001F017FADC4900200A46087020324B
:1013700050700873086148618877C87710700877E3
:10138000487710BD10B5D54C0021607806F000FC00
:10139000607806F04BFC10BD014610390F2905D9C5
:1013A000992805D1CD480079002801D00120704747
:1013B00000207047F8B5C84CC949608840182BD147
:1013C000C84800270078102822D109F03CF8A088EE
:1013D000012804D0042805D0072816D018E007F00B
:1013E000C1F915E0C04D0097C04E2B78327804212A
:1013F0008B2009F02CF82A7831780020514301E045
:1014000000BF401C8142FBDC02E0002007F07FFCB3
:10141000B4486780012101730120F8BD10B504466E
:10142000112802D0122C03D006E0AB49042001E0C1
:10143000A949082008F06EFCA84900200B78A94AA9
:101440009C4203D0992C03D108711FE0992C1FD026
:10145000002C1BD0102C19D0112C17D0122C15D009
:10146000802C13D0862C11D08A2C0FD08B2C0DD031
:101470008D2C0BD08F2C09D0902C07D0922C05D01E
:10148000942C03D0992C01D0107000240C7010BD46
:101490000879401CC0B208710328F7D310201070DF
:1014A000F4E7FFF7B3FA914802788F480178904843
:1014B00001F073FA01F028FC06F002F909F052FC81
:1014C0000120FFF74BFF07F01FF806F091FE04F034
:1014D00094FD03F0CFFD07F058FB02F05DFC002106
:1014E000084606F0E3FA7D4C00216070012006F00A
:1014F000DDFAA0700121084606F0D8FAE07001215B
:10150000084606F0D3FA7B4908700121084606F028
:10151000CDFA794908700021042008F0FBFB6E4DDC
:1015200001262C462034754808F083FE28780300F5
:101530000AF037F90504397D87B5C100012008F0AC
:10154000FBFD09F016FCC8226D49742009F030FD3E
:101550006C48007800280FD0287FDE2106F0B1FF0C
:101560002E7766700220A0700A20E0705D484078F7
:1015700008F0E4FE2E70D6E709F0FBFB62486349F1
:1015800002786348007809F0C5FC0746287F09F017
:1015900001FC2877022800D16E77394606F091FFCA
:1015A00009F0E7FBDDE707F028FB4E4F3878FFF73F
:1015B00035FFFFF7FFFE3878FFF7EEFE002818D161
:1015C0007878002815D06078002810D039789929CB
:1015D0000DD0012802D0022805D006E0A178E078DD
:1015E00000F0C4FB01E000F091F90020607000F011
:1015F00042FA287B02280AD001280DD0A87F0128B2
:1016000010D02869401C2861FFF7BCFE8BE708F06A
:1016100089FE0220287086E708F084FE0020A86179
:101620000320F7E709F09EFB2E770420F2E7002065
:10163000C04308F0FEFD012008F034FE00202873AE
:10164000E8E70020C04308F0F4FD00F02FFB00F0B5
:101650003DFCA8690027002805D000F07EFC0700AB
:1016600001D100F002FC287B002806D0012F04D015
:101670007D21A869C90088420CD1002008F05CFDDA
:10168000012008F059FD1748407808F057FE09F08E
:1016900069FB6FE7401CA861FEF718FF43E70020D5
:1016A000C04308F0C6FD0F4F0820387008F02EFC2C
:1016B000002038705EE71421002003F0E9F932E7DA
:1016C00010B506F07FF90548407806F0DEFA08F01C
:1016D000FBFC06F07CF910BD281800003602000063
:1016E000E9F7FFFF103000001FBE00101EBE001003
:1016F000D01E0040080200000902000080C3C9019A
:10170000B80B0000D4300000BC30000022BE001036
:10171000D0020000F8B501F03BF803460021801C20
:1017200010250A46294C12260AE002804280828057
:10173000827141720572C7793743C7710A30491CFB
:10174000A7788F42F1D81F705A700021022008F04C
:10175000E1FAF8BD00252C46FFF7DCFF1C4F002600
:101760001D481C49007806F013FA002803D0132105
:10177000002003F08DF91948007800280BD0641C74
:101780001E2C0CDD12480121203041700024817094
:101790000821C17003E0002400F022F805460B4840
:1017A00000780028DCD1387B002807D0002DD7D066
:1017B0000021022008F0AEFA3E73D1E7002DCFD011
:1017C0000021022008F0A6FA7E61C9E7103000006F
:1017D0002818000080969800380200003B020000A4
:1017E000F8B587203A4DC000E8800F20C00128815D
:1017F00007F015FA374A0023507F0126364C374947
:10180000012802D0022806D007E0FF202D30086012
:101810002670537704E0237053770868002802D0BD
:10182000401E086003D103210A2004F097FD03F055
:10183000A6FB09F068F807F07FF90120284900901D
:101840000B78284928780A78042108F000FE2648F9
:1018500003F0C3FC254E2E2330702548224FC35E73
:10186000244A2549386804F0B0F8244A31783846CB
:1018700003F04FFF30700120194900900B7819498F
:1018800028780A78082108F0E2FD3022BA5E217833
:101890001B4805F013FE1A4805F03AFE002802D056
:1018A00008F0B5FF01E008F0B6FF05F0F1FE02F028
:1018B00032FE0446012007F02AFA124912480A6B48
:1018C000521C0A630122114609F066F92046F8BD50
:1018D00010300000281800000A0200003C0200003E
:1018E0001FBE00101EBE00102C1A00002C020000AB
:1018F0008430000010100000A4100000300200002E
:10190000601C0000F4310000F07F0040F0B5FB489F
:101910007D21BFB0C900007806F03AF9002803D055
:101920000521002003F0B4F8022008F005FCF44C77
:10193000207806F07BF906F0E9FC6421207806F0B7
:1019400027F9002829D00020EE4903F0A1F8022051
:1019500008F0A8FC06F0EDFE01F061F8039000200D
:1019600001228100520206AB5A5022AC401C625048
:101970001C28F5DB002000907321490101F08AF951
:101980000290E149009801F085F90646DF49009888
:1019900001F080F9074600203EE00120D4E7012055
:1019A00040020024059029E003990098650048430F
:1019B0000019C0B20490785F002800DA4042322853
:1019C00006DA0298715F405F000309F049FC08E005
:1019D000049806A98000085805994018C10F0818F6
:1019E0004010715F22AA4143491271530499059036
:1019F000890006AD6B5853506850641C009801F084
:101A000011F8A042D0DC03980299400041188619D1
:101A1000C71901980291401CBD490190097888427C
:101A2000BDDB0098401CC0B200900428A4D3B3488A
:101A3000007806F003F93FB0F0BDF8B500252E465A
:101A4000490009E0002403E06700C75F7D19641CBA
:101A50009C42F9DB0818761C9642F3DB1146594389
:101A6000284609F0FDFBFF212D31884201DA0020D4
:101A7000F8BD0120F8BDF0B585B0022008F05CFB90
:101A8000A44CA54EA07931689D4D084310D128780B
:101A900006F0CCF8A148807806F081FC6421287813
:101AA00006F076F8002803D00721002002F0F0FFAE
:101AB0009B487D21C900007806F06AF8002803D011
:101AC0000821002002F0E4FF287806F0AFF806F0C5
:101AD0001DFC90483168807908437DD09148047F8F
:101AE0006421287806F054F8002803D0092100204A
:101AF00002F0CEFF2A211C2310224807FFF79DFF8A
:101B000000286AD07D486421007806F041F800285A
:101B100003D00A21002002F0BBFF06F00AFE28785D
:101B200006F084F806F021FC07F0E0F8642128783C
:101B300006F02EF8002803D00B21002002F0A8FFA9
:101B4000022008F0AFFB724807210078801D09F0E1
:101B50007DFBC100081AC2B20127734800970178C3
:101B6000007839400818C3B270480021007808F0A6
:101B70006EFC6E4800976E4D00782B78012205218F
:101B800008F065FC6B4A6C496C48032312780978AD
:101B90000078049301AB07C328780090684A69482D
:101BA000674B803A6749803808F003FD287864491C
:101BB00042008039644809F0DFFA61482A786249B6
:101BC000803805F086FE5948009700782B7801226E
:101BD000062108F03CFC01E008E014E05B4804F05A
:101BE00033FA5B480078002811D020E04B480023EE
:101BF00081781A46574809F038F94A48007F09F0B9
:101C0000C9F8C4B26CE7544808F013FBFEE72A7821
:101C10000320042100920191029050480397484A02
:101C20004749037880328039464804F0ABFA0121F5
:101C30004B4801F034F83748007800282CD1394D52
:101C4000287FA04210D0022C02D0012C07D00BE03C
:101C500009F08FF86F772C774020306007E009F0AB
:101C600088F8022068772C773068002814D006F0B6
:101C700030FC054629483B4942783B48007809F04A
:101C800049F981B23068012808D02946204606F07B
:101C900018FC3068401E306005B0F0BD204606F0EC
:101CA00010FC09F066F8FFF731FEF2E738B50520C1
:101CB00008F042FA124C207805F0B8FF06F0CFFB8E
:101CC0006421207805F064FF002803D00F21002054
:101CD00002F0DEFE052008F0E5FA0120009014482D
:101CE000082201780078C907C90F0818C3B20F4845
:101CF0000021007808F0ABFB38BD000009020000AD
:101D00001E0300000903000090150000F0230000EE
:101D10001EBE0010D430000040020000BC300000A5
:101D2000390200002818000021BE00101030000009
:101D30001FBE00103FBE00103EBE00103DBE001092
:101D4000903600402035004098160000681A0000C8
:101D50002C0200006012004080C3C90140BE001088
:101D6000BB88001028BE0010D1020000F0B5064666
:101D70008E480F4685B06421007805F009FF0028E1
:101D800003D01021002002F083FE3C218848FEF79A
:101D90004BFC73200221800100F077FF022008F045
:101DA000CBF9002435E0834D287805F03FFF06F09D
:101DB000ADFA6421287805F0EBFE002803D011214C
:101DC000002002F065FE287805F030FF06F0CDFA1D
:101DD0006421287805F0DCFE002803D012210020C1
:101DE00002F056FE06F0A5FCBC4210D37348724DBB
:101DF0007321027889012B78481000F076FD0020CD
:101E000000902B7801226A496D4804F072F9641C35
:101E1000E4B2B442C7D3684DF41B287800906748F9
:101E2000A2B2037873206749800100F082FD29780F
:101E30000023032201206D460FC5A2B260495C4C0D
:101E400004238031204604F06AF93C212046FEF745
:101E5000EBFB01215C4800F018FF022008F022FA99
:101E60005248007805F0EAFE16E7F8B50027564913
:101E7000384600F00FFF06465249384600F00AFF88
:101E80000546002418E000244C4905E060002A5A69
:101E9000335AD2182A52641C08788442F6DB00F0C8
:101EA000BEFD4000451949482040012803D100F0FB
:101EB000B6FD40008619641C384600F0B3FDA04210
:101EC000E1DC7F1CFFB2042FD1D3F8BDFEB50020AA
:101ED00000903D4900F0DEFE01900021009800F0E6
:101EE000D9FE0546002700F09AFD009948434100BD
:101EF0003820784309180120800708180024029030
:101F000011E002986600805F0521C9014843422123
:101F100009F0A6F9A95F00B2091ACA100199641C58
:101F20008A53A853E4B2009800F07CFDA042E8D8A0
:101F300000F075FD410001980818019000F06FFD58
:101F400040007F1C4519FFB2082FCCD30098401CDD
:101F5000C0B200900428BCD3FEBDF8B500273846B7
:101F60000097194900F096FE05460026002403E07C
:101F70006000285EC719641C009800F053FDA04261
:101F8000F6DC00F04CFD40004519761C082EEDDB18
:101F90000098401CC0B200900428E2D3AF2080001B
:101FA000874201DD0120F8BD0020F8BD09020000D4
:101FB000103600401E0300001FBE00101EBE0010A1
:101FC000A034004090150000F023000001000080C4
:101FD00070B5FF4C00232268DB43D568AB875C25D6
:101FE000022817D007DC002812D0012802D1FF20D8
:101FF0007330508070BD0026F649032814D0FF28A6
:10200000F8D10E63002008F063F8606A067070BDB6
:10201000558070BD002905D0022008F059F82068CD
:10202000458070BD0120F8E7102008635580616A83
:1020300003200870E848066070BD70B505460E467E
:102040000124022008F078F831462846FFF7C0FF47
:10205000E24D287805F0EAFD06F0DEF964212878E3
:1020600005F096FD002803D00221002002F010FDAB
:102070000021FF20FFF7ACFF022008F013F92046F3
:1020800070BD30B5D74AD849D54B097812781C02B3
:1020900000204A4303E041005D5A6552801C8242A1
:1020A000F9DC30BD38B5CF4C002807D0012808D066
:1020B00002280BD003282AD1002104E00021084681
:1020C00001E000210120FFF7B8FF17E00021022006
:1020D000FFF7B3FFC44801780078C907C90F081893
:1020E00021784843420001218907BD48FEF7B0FA34
:1020F00001210220FFF7A1FFFFF7C3FF012000909D
:10210000BA48227803780921802008F0A0F938BD68
:10211000B7490120C877B749002008707047F3B568
:1021200081B000252AE0002422E000F078FC01467E
:10213000204609F08BF8029900F0ACFD064600F04D
:102140006EFC6843400036183878FE21401C084079
:102150006843410001980F1800F061FC01462046D9
:1021600009F074F848006100305A641C7852E4B2F7
:102170009E4F38788442D8D36D1CEDB299480078D0
:102180008542D0D3FEBD70B5049C5A43002C0BD0C1
:10219000002306E05C00065F0D5FAE4200DD0553E4
:1021A0005B1C9342F6DB70BD002306E05C00065F1B
:1021B0000D5FAE4200DA05535B1C9342F6DB70BD47
:1021C000F0B5064600205A4303460BE05D00745FFD
:1021D0004F5FE41B00D5644224B2844200DD2046F8
:1021E00074535B1C9342F1DBF0BDFFB58E469C46F9
:1021F000002411E060466043410000980D18002063
:10220000A70006E00B994600AB5BC9595B1AAB53BC
:10221000401C9042F6DB641C7445EBDBFFBDFFB550
:1022200094469E4600200C9E0B9D1CE0002147001A
:10223000E9533154714641434A0000995318002133
:102240000EE04A009C5E099A944208DC0A9A944285
:1022500005DBEA5B1419EC53345C641C3454491CF0
:102260006145EEDB401C01998842DFDBFFBDF7B51D
:102270000446D0B0732040010C905F48BB26732702
:102280001190B601BF01594810960F970178007858
:10229000C907C90F08180121400089074018149088
:1022A0005748079056482421603005905448534DB4
:1022B000C0300A9053480890534841800021416043
:1022C00047210170082141704F480830049052980E
:1022D000002802D1032102F0DBFB4C486421007886
:1022E00005F056FC002803D00421002002F0D0FBAA
:1022F000E00703D03046022100F0C7FCA00703D559
:102300003846012100F0C1FC414861070078800097
:102310000990002903DA0146079808F095FF200785
:1023200003D50999089808F08DFF002006903848D9
:10233000007840000B90069860E1022007F0FCFE58
:10234000264E307805F072FC05F0E0FF642130780D
:1023500005F01EFC022007F0A5FF06F0EAF92007B1
:10236000800F25D000261FE01F4900220978104663
:10237000CB07DB0F59188C46770008E061464143D4
:102380004B0014995918C95F8A18401CC0B21549EE
:1023900009788842F2D313480178104608F060FFAC
:1023A0000599761CC853F6B2194800788642DBD3EB
:1023B00052990698884270D3E0072DD010980B4AA6
:1023C00081B213780C98074A80B2127822E000009C
:1023D00030220000C0030055440200001E0300002C
:1023E0000000405E1EBE001021BE00101FBE001087
:1023F000281800001030000090150000F0230000A5
:1024000030140040501500405037004009020000D1
:1024100020BE001000F069FAA0077DD50026D14F3C
:1024200000F0FDFA01900C9881B2304600F032FCC9
:102430000090A9B2304600F02DFC3A78019B00993B
:10244000FFF7BEFE761CF6B2042EE9D30026C6497D
:10245000304600F01FFCC4490D906031304600F05A
:1024600019FC0E9000F0DBFA1390304600F0DAFA17
:102470001290A9B2304600F00DFC0E9F0D9B0E226B
:102480000397D2431E216F460EC7B64F139B397870
:10249000129AFFF7C4FE002119E088E0002E05D152
:1024A00000208B0015AAD05043AA5054880015AACA
:1024B00013580D9A4F00D25F9A1815AB1A500E9A06
:1024C00043A8435C525C9A184254491CC9B2A548BF
:1024D00000788142E2D3761CF6B2042EB7D30026F0
:1024E0000DE043A8815DB70015A8C059CA2250432A
:1024F00008F0B6FE011215A8761CC151F6B2994833
:1025000001788E42EDD30026074600F088FA0D9040
:10251000304600F087FA00E02DE00390A9B2304683
:1025200000F0B8FB0E2215ABD2431E21029301929C
:10253000009139780D9B039AFFF757FE761CF6B28F
:10254000042EE2D3002600F06AFA0290A9B23046C7
:1025500000F0A0FB01900F9881B2304600F09AFB8A
:10256000002100913A78029B0199FFF70CFE761C3E
:10257000F6B2042EE7D3600708D5002000907B4810
:10258000012203780799059803F0B3FD20070ED5C3
:10259000764E0122337805990A98FFF711FE002044
:1025A0000090337801220A990898FFF7ECFDA00704
:1025B00018D5002600F033FA6A49097848434700E5
:1025C0000C9881B2304600F065FB0090A9B230460D
:1025D00000F060FB3A46009908F0CEFD761CF6B29A
:1025E000042EE7D3200704D50B9A05990A9808F022
:1025F000C3FDFEF7C7FE0698401C0690519988421D
:1026000000D29AE6529A5198E107851A5848027802
:102610005448007850434600002914D05448514B88
:1026200000780090E804020C11981B7881B2109891
:1026300080B200F07EF9119881B20498FFF76FFD27
:102640000498301804904948494A00781278610784
:10265000101A4700002920DA444900200978012295
:102660000290009201910390AAB202230499079864
:1026700003F055FD04990B9845183D4801783B48F7
:102680000078814203D20521002002F001FA394688
:10269000284608F0D7FD78190490A00707D50F98B1
:1026A00081B20498FFF73BFD04983018049020078E
:1026B00015D52E4C099A0899049808F05DFD0499E7
:1026C0000B9845182A4908782178884203D20621B8
:1026D000002002F0DDF93946284608F0B3FD254810
:1026E000007805F0ABFA53B0F0BDF0B522A30FCBE4
:1026F00085B06C460FC4012005F0CCFE05220F21E9
:102700000420FFF7B4FD00206D461F4E1F4F174CED
:1027100009E0295C002904D041008A19128BC919EB
:102720000A80401CC0B221788842F2D3022005F012
:10273000B1FE05220F210420FFF799FD002009E0DA
:10274000295C002904D04100CA19128889190A831A
:10275000401CC0B221788842F2D3002005F09AFED6
:1027600005B0F0BD1EBE0010F03D000020BE001000
:102770001FBE00100902000001000100010001005D
:10278000010000010100000040370040A03400407B
:102790001E48704730B51E491C4A097874321170C2
:1027A0001C490123097851709382D382022111833D
:1027B000FF2117315183114620318B70CB700020DF
:1027C0000023154993840C1820341518A47C401C50
:1027D0002C770628F7D3002004E0410089180B71FC
:1027E0004B71401C91788142F7D80D490B48136317
:1027F000086030BD00200A4A0146121D1318401C13
:10280000C0B219730C28F9D3704700008031000062
:102810001EBE00101FBE0010C002001080FF00107E
:102820000C3000000A04120E554B12040906184021
:102830001043090D08437047F8B59C46930464465D
:10284000DB0CA4052343069C4E4DE405A40A234358
:10285000840088002E59FF3081303350082901D27E
:10286000002000E004200126130CB603B34201D17E
:10287000002300E002235204D60F1E434200891AAF
:10288000B64689000F228A402E59034658330096D7
:10289000F758764697438E403743009EF7500646DA
:1028A0002B596036B6469E591F46069B9643DB045D
:1028B0001B0F8B401E433B467746DE512B59683039
:1028C0001C58944362469204120F8A4014431C50D1
:1028D000F8BD002100022B4A401C8B00D358186021
:1028E000491CC9B20429F8D37047FFB581B0002450
:1028F000049800F049F8C6B203980299464320466E
:1029000000F0C8F905462046019900F0C3F90246D7
:10291000002106E088004F002B58D75FDB192B50B1
:10292000491CB142F6D3641CE4B2042CE0D305B0D8
:10293000F0BDFFB581B000250A9800F025F8049E8F
:10294000C0B246432846019900F0A4F900902846F9
:10295000029900F09FF90746002409E00098A100C1
:1029600040580399C00008F07BFC61007852641C59
:10297000B442F3DB6D1CEDB2042DDDD3D7E70000CC
:102980000FF000FF20BA0010401EC117090F0818F1
:1029900000118000001DC0B27047F7B50C4603213E
:1029A000890701224118D203914200D3FEE7002596
:1029B000D04ED14B35707570B570F560B06028465B
:1029C000012182009A581161401CC0B20428F8D33A
:1029D0000021012005F06AF8F0700121084605F099
:1029E00065F830712046FFF7CFFFB07107460298B7
:1029F000F071C04E002020363554401CC0B204286F
:102A0000FAD3002508E03946284608F01FFC315C5F
:102A1000491C6D1C3154EDB2A542F4D3FEBDB5483E
:102A200080797047B3492031085C704770B5B14870
:102A300000211C30AF4C016060791821AF4D484334
:102A400040198268002A03D0A1696069904700E0BC
:102A50000120A178002918D000281FD06079182102
:102A600048434019C268002A02D0A16960699047B2
:102A7000A078012812D1216900208847A070002881
:102A80000CD104F09FFF207904E0002806D004F068
:102A900099FFE07805F0F9F804F099FF70BD9648C9
:102AA00001684969C9070AD000680121816191481C
:102AB0001C30017000689249884200D1B6E7704727
:102AC0008D4841684969C9070AD040680121816180
:102AD00088481C30417000688949884200D1A5E7C8
:102AE0007047854881684969C9070AD08068012113
:102AF000816180481C30817000688149884200D122
:102B000094E770477C48C1684969C9070AD0C06822
:102B10000121816177481C30C17000687849884282
:102B200000D183E7704770B5724C054621781429AF
:102B300000D3FEE76869C20700D0FEE7E2688018AC
:102B400001229202904200D9FEE718206B4E4143C9
:102B5000881918222946FDF77BFDE168A068182234
:102B6000401821785143891908616A69296908F078
:102B700003FB2078401CC0B220706969E2688918A4
:102B8000401EE16070BD30B40C465A49097881425C
:102B900000DCFEE71821484358490B58002B03D0AE
:102BA000204630BC1146184730BC01207047F8B5AC
:102BB000504C054620780E461746A84200DCFEE73A
:102BC0006078002800D0FEE76571A7616661E07853
:102BD00005F02CF818204543484839462D186A68F6
:102BE00030469047A078012810D06421E07804F0A6
:102BF000CFFF002800D0FEE73E4900201C310860CE
:102C0000EA68002A02D03946304690470020F8BDD5
:102C100038481821407948433849401800697047BE
:102C20003448182140794843344940184069704776
:102C3000F8B5344E0546174600290DD0012917D0A6
:102C40000024A000305839464019FDF7EDFC641C03
:102C5000E4B2042CF5D3F8BD0024A0003058394666
:102C6000401908F0EFFA641CE4B2042CF5D3F8BD67
:102C700000245700A00030583946401908F0E2FA05
:102C8000641CE4B2042CF5D3F8BD1A4B9A79DB79B5
:102C90005A43CDE71B4A800010584018704770B562
:102CA000144C0125A2780646012904D002290ED031
:102CB000032919D01CE0002A01D0022A18D120795A
:102CC00004F0B4FF2661A5700120B04705E0022A98
:102CD0000ED1A570216902208847A070002807D175
:102CE000207904F0ABFF03E0012A01D10220A0709B
:102CF000A07870BD4802000020BA00104C180000F7
:102D00000101010130BA001010B5FE48FFF70BFFBA
:102D1000FD4CE060FB486038FFF705FF2060F94894
:102D20004838FFF700FF6060F6483038FFF7FBFED9
:102D3000A060F4481830FFF7F6FE2061F14818381B
:102D4000FFF7F1FE6061EF483030FFF7ECFEA06165
:102D5000EC484830FFF7E7FEE061EA486030FFF7F3
:102D6000E2FE2062E7487830FFF7DDFE6062E5486A
:102D70009030FFF7D8FEA06210BDF0B585B00546D3
:102D8000FFF746FF012180B20026C9070390DF4FFD
:102D900040180290E87AFFF7F7FD0190A87AB40096
:102DA0004006410C0198014338590164FFF738FF90
:102DB000039940183959486039590298886039593F
:102DC0000020486439590F204865012000902A8866
:102DD00000213046019BFFF72FFD012000900146A6
:102DE0006A883046019BFFF727FD0820395928568D
:102DF00080310860697A0120800408183959886494
:102E0000761CF6B2042EC5D30120FFF762FD012027
:102E100005B0F0BDF0B585B00446FFF7F9FE0290AD
:102E2000012180B20025C9070490B84F40180390D3
:102E3000607AFFF7A9FD0190207AAE004006410CB0
:102E400001980143B8590164FFF7EAFE049940185C
:102E5000B9594860B95903988860B9590020486445
:102E600001260096014622882846019BFFF7E4FCD4
:102E70000096E28801212846019BFFF7DDFC0096C1
:102E8000628802212846019BFFF7D6FC0096A288A3
:102E900003212846019BFFF7CFFC6D1CEDB2042DEA
:102EA000C6D3A17A0298491E4068FFF7BBFC02997D
:102EB00048600120FFF70DFD0120A9E7F0B585B0BE
:102EC0000446FFF7A5FE0190012180B20025C90745
:102ED00004908E4F40180390E079FFF755FD029063
:102EE000A079AE004006410C02980143B859016434
:102EF000FFF796FE04994018B9594860B9590398EC
:102F00008860B95900204864012600960146A288CD
:102F10002846029BFFF790FC009662880121284614
:102F2000029BFFF789FC0096228802212846029B1B
:102F3000FFF782FC6D1CEDB2042DCDD3207A010485
:102F40000001014372480143019841600198617A90
:102F50004069FFF767FC019948610120FFF7B9FC60
:102F6000012055E7FEB50446FFF752FE012180B26D
:102F70000025C907029040180190E079FFF704FD91
:102F80004708A07961494006AE00400C8959384392
:102F90000864FFF745FE029941185C48805941607A
:102FA0005A490198895988605849002089594864CC
:102FB000012600960146A2883B462846FFF73CFCC6
:102FC000009662883B4601212846FFF735FC022621
:102FD0007F00009622883B4631462846FFF72CFCAE
:102FE000009622883B46921C03212846FFF724FCCA
:102FF0006D1CEDB2042DC0D30120FFF76AFC012047
:10300000FEBDFEB50446FFF703FE012180B2002598
:10301000C907029040180190E079FFF7B5FC470816
:10302000A0793A494006AE00400C895938430864FB
:10303000FFF7F6FD02994118344880594160334941
:1030400001988959886031490020895948640126CE
:103050000096014622883B462846FFF7EDFB009686
:1030600062883B4601212846FFF7E6FB02267F00E7
:103070000096A2883B4631462846FFF7DDFB0096C6
:10308000A2883B46921C03212846FFF7D5FB6D1C06
:10309000EDB2042DC0D30120FFF71BFC0120FEBDC3
:1030A000F0B587B00446FFF7B3FD0190E079FFF774
:1030B0006BFC07460198012180B2C90706904018B1
:1030C000029078000390B80004900025384606214D
:1030D00048430590A0790D494006AE00400C89593F
:1030E00038430864FFF79CFD06994118074880594A
:1030F000416006490298895988600449002089592D
:10310000486407E050BB00106C02000020BA0010B9
:103110000010000E01260096014622883B462846F4
:10312000FFF78AFB009662883B4601212846FFF79D
:1031300083FB0096A288002302212846FFF77CFB30
:103140000096A188039800230A1803212846FFF758
:1031500073FB0096A188049800230A1804212846CE
:10316000FFF76AFB0096A188059800230A1805213D
:103170002846FFF761FB0096A2883B4606212846B9
:10318000FFF75AFB6D1CEDB2042DA3D32089401E1E
:1031900001B201984068FFF745FB019948600A2099
:1031A000205EC1430198C069FFF73CFB0199C861EB
:1031B0000120FFF78EFB012007B0F0BDFEB50446ED
:1031C000C06900210180206A0D460180A06901606C
:1031D00060690160002001900090FFF723FC064623
:1031E000FFF71DFC0746732109010098FFF752FD08
:1031F0006F4379004118002D06D0022D18D0012D03
:103200002AD0226A002030E0019A002092009446E1
:103210000BE042008700E3688A5E6744DA51676921
:103220003B689A18401CC0B23A60B042F1D31EE02D
:10323000019A0020920094460BE042008700236927
:103240008A5E6744DA51A7693B689A18401CC0B28D
:103250003A60B042F1D30AE0E269D3E7470013884D
:10326000CF5BDB19401C1380C0B2B042F6D301988B
:10327000801900B201900098401CC0B20090042850
:10328000ABD36D1CEDB2042DA4D30120FEBDF0B56F
:1032900085B00446FFF7BCFC0546012180B200263C
:1032A000C907039040180290207DFFF76DFB019045
:1032B000E07CB7004006410C01980143FE48C0592C
:1032C0000164FFF7ADFC03994118FB48C059416008
:1032D000F9490298C9598860F7490020C9594864DA
:1032E00001270097014622883046019BFFF7A4FA88
:1032F0000097628801213046019BFFF79DFA0097F5
:10330000A28802213046019BFFF796FA0097E288D7
:1033100003213046019BFFF78FFA00972289042191
:103320003046019BFFF788FA0097628905213046F5
:10333000019BFFF781FA0097A28906213046019B85
:10334000FFF77AFA761CF6B2042EADD30F21615640
:103350006868FFF767FA68600E2020564142E86807
:10336000FFF760FAE860112161562869FFF75AFA01
:10337000286110216156A869FFF754FAA86112204C
:1033800020564142286AFFF74DFA28620120FFF7D4
:10339000A0FA01203CE5F0B5054685B0002001907B
:1033A000FFF736FC0146687D0022002808D0E86857
:1033B0002423438047234260037008234370019312
:1033C000BE4808608F208005002427468EB2086121
:1033D00028190290017A002939D0287DB64A400682
:1033E000400C0143A000135819641358311D596053
:1033F0000121C9071058711881600021A000AE4A50
:103400000390105841640120009060002B5A2A8AD2
:103410002046FFF711FA012000900198E96838185A
:103420000A186B8A01212046FFF706FA0298A24A81
:10343000007AFF214000C01987B20398023110586A
:103440000160641CE4B2042CC2D30120E0E4FF223A
:1034500002329949A0000B581A6432460B580832C0
:103460005A60974A0858B2188260C6E7FEB504460B
:103470000E46FFF7CDFB2169B160E16871609149AB
:10348000016091494160257A0821904A904B022DB4
:1034900004D08260227A0C21012A01D04350091DF8
:1034A00041180122002580B2D2078018019088B20D
:1034B0000290E079FFF768FA70550346A0797E4ADA
:1034C0004006410C1943A8001758396417580021C9
:1034D000796417580199B960105802994160012721
:1034E0000097228800212846FFF7A6F900976288F6
:1034F000002301212846FFF79FF90097A2880023A7
:1035000002212846FFF798F96D1CEDB2042DD0D3A7
:103510000120FFF7DEF90120FEBDF8B50646007A6E
:103520000F4602281BD06B4D002471882046FFF700
:10353000B1FB024600203B5D06E04100515EA9421E
:1035400000DA0D46401CC0B28342F6D8641CE4B2D7
:10355000042CEAD378680580307A012819D05D4DB3
:103560006D420024B1882046FFF794FB02460020FC
:103570003B5D06E04100515EA94200DD0D46401C66
:10358000C0B28342F6D8641CE4B2042CEAD3B86813
:1035900005800120F8BDF0B50025817B2B462F4624
:1035A0008E4626E00024067B21462246B44612E0E1
:1035B000066976578E4008313243C9B2202907D3B5
:1035C00041699E00895991420ED15B1C00210A4637
:1035D0006D1C641CE4B2A445EAD8002907D04169F7
:1035E0009C000959914201D00020F0BD5B1C7F1C5A
:1035F000FFB2BE45D6D80120F0BD00B5FFF7CBFF26
:10360000002800D0012000BDF0B587B004460D466B
:10361000FFF7FEFA02900120687200272F73207BCB
:10362000C01C8008E872A17B607B07F00FFEA872C7
:10363000A17B4843617B884205D0081A2872A87A8A
:10364000401CA87200E02F720298002680B2011D73
:1036500003910121C907401801960490E07BFFF710
:1036600093F9A91905910871A85500201249B700CE
:10367000C9594864E088009021680198A3880A1815
:1036800000213046FFF7D8F8207B01283BD0A97AEB
:10369000228941434806A95D400C08430649C9599F
:1036A0000864012000900146AB5D3046FFF7C4F886
:1036B00001480399C2590FE020BA00100010C0233E
:1036C000040000800010000C0020000C10100021ED
:1036D00020204021FF7F00005160C0590499816083
:1036E0000598761C0079F6B241000198081880B25E
:1036F0000190042EB2D30298F74901600120FFF730
:10370000E8F8012058E5617B62894906A85D490C0B
:10371000C3E7F8B506460C46174600250120009081
:10372000607BA17B7B5D401A801958436189400012
:103730004218E8B20121FFF77FF86D1C042DEDD38C
:10374000FA7AE64B1046724380188646002110E054
:10375000950000208F00AC46803765696646AD59FC
:1037600086009E59F551401C0428F6D3521C491C72
:10377000C9B27245ECD3F8BDF8B506460C461746FB
:103780000025012000907B5DA17B18464B43618999
:10379000704340000A18E8B20121FFF74DF86D1C94
:1037A000042DEED3FA7ACD4910467243801886462E
:1037B000002310E0950000209F00AC46803765692B
:1037C0006646AD5986008E59F551401C0428F6D343
:1037D000521C5B1CDBB27245ECD3F8BDFEB506464D
:1037E0000C46FFF715FA0746307B032201287DD0EF
:1037F000607A0128207B1DD0401CC0B22073B17BB1
:10380000884273D222463146FFF783FFBCB20126BD
:103810000020B24DF607FF270237C10061188A1950
:1038200081006B589A6069580F60401CC0B2042830
:10383000F3D37FE0401CC0B22073B37B98423DD8E5
:10384000012833D1207A0028A07A01D0401EC0B2CE
:1038500000254006400C0190B8B202900120009073
:10386000635D307B3289434300212846FEF7E4FF45
:10387000615D0198994A0143A80012581164974963
:1038800018220958B2564A64317B954B625D09048F
:1038900019430A43E9007A50029A51188F4A091DC8
:1038A000105841606D1CEDB2042DD7D3207B224609
:1038B000401EC0B23146FFF75FFF28E0207A0028A3
:1038C0003AD000202073022060720025605D834999
:1038D000FF300130AA0089580864207B2246314617
:1038E000FFF717FF01200090635D00E024E0307BCC
:1038F000A17A5843491E48433189400042180021AB
:103900002846FEF799FF6D1CEDB2042DDED3BCB244
:1039100001260020714DF607FF270237C10061180C
:103920008A1981006B589A6069580F60401CC0B2B8
:103930000428F3D30020FEBD62720120FEBDF0B565
:1039400087B005460C46FFF763F9029001206072CC
:1039500000272773A87BC01C8008E072297CE87BC5
:1039600007F074FCA072297C4843E97B884205D0AB
:10397000081A2072A07A401CA07200E027720298F8
:10398000002680B2011D03910121C907401801964C
:103990000490687CFEF7F8FFA11905910871A05505
:1039A00000204E49B700C9594864E888009029684A
:1039B0000198AB880A1800213046FEF73DFFA87B2E
:1039C0002A89012829D0A17A41434806A15D400CEB
:1039D00008434249C9590864012000900146A35D8B
:1039E0003046FEF729FF3D480399C2595160C0593E
:1039F000049981600598761C0079F6B2410001981F
:103A0000081880B20190042EC3D302983249016095
:103A10000120FEF75EFF012074E6E97BA05D490608
:103A2000490CD5E7F7B5002582B00C4616460127AC
:103A30000097735DA289E8B20121FEF7FDFE6D1CBF
:103A4000042DF5D3F27A029910464A43801886462F
:103A50000023224910E0950000209F00AC468037EB
:103A6000A5696646AD5986008E59F551401C04285B
:103A7000F6D3521C5B1CDBB27245ECD38AE4F8B57A
:103A80000C4605460988FFF705F90090618828462D
:103A9000FFF700F98646002332E0A0885843410032
:103AA00000980E18E0885843410070460A180A2012
:103AB0002056002802D0844600211CE0002106E0A8
:103AC0004D00575B705B3818491C5053C9B2607A7F
:103AD0008842F5D812E000000010C02320BA001080
:103AE0000010402F4D00505F775FC0196746384186
:103AF000491C5053C9B2607A8842F3D85B1CDBB2D0
:103B0000207A9842C9D8F8BDF7B5002582B00C4696
:103B1000164601270097735DA289E8B20121FEF7DE
:103B20008BFE6D1C042DF5D3F27A029910464A43A0
:103B3000801886460023964910E0950000209F00DB
:103B4000AC468037A5696646AD5986008E59F55159
:103B5000401C0428F6D3521C5B1CDBB27245ECD32C
:103B600018E4FEB505460C46FFF752F80746A87B59
:103B7000012843D0607A01285AD001206946087292
:103B8000687F88720026A88969460880E87B297CBE
:103B9000401A217B4018A15D4843698940004018C4
:103BA0006946488000208880C880A0190079487242
:103BB0003046FFF764FF761CF6B2042EE3D3207B79
:103BC000401CC0B22073297C884230D2224629464C
:103BD000FFF728FFBCB2012600206D4DF607FF2736
:103BE0000237C10061188A1981006B589A606958C0
:103BF0000F60401CC0B20428F3D3C2E02889694694
:103C0000088068894880E87B0872687F8872002590
:103C1000605D69468880605DC8806019007948727F
:103C20002846FFF72CFF6D1CEDB2042DF0D3AAE05F
:103C3000207A0028A07A01D0401EC0B2217B491C06
:103C4000C9B22173022920D3A9896A461180107252
:103C5000687F90720026217BA05D891E4843698998
:103C60004000401869464880A05D8880A05D297C9E
:103C700048436946C880A019007948723046FFF76A
:103C8000FEFE761CF6B2042EE5D3207B297C88420A
:103C90003DD8012833D1207A0028A07A01D0401ED7
:103CA000C0B200264006400C0190B8B2029001203C
:103CB0000090A35DA87B2A89434300213046FEF78C
:103CC000BBFDA15D0198324A0143B0001258116456
:103CD0002F491C220958AA564A64A97B2D4BA25D84
:103CE000090419430A43F1007A50029A5118284AEC
:103CF000091D10584160761CF6B2042ED7D3207BE4
:103D00002246401EC0B22946FFF7FEFE26E0207A7A
:103D1000002838D0081A2073022060720026A05DA7
:103D20001B49FF300130B20089580864207B2246CD
:103D30002946FFF777FE01200090A35DA87BA17ABA
:103D40005843491E48432989400042180021304603
:103D5000FEF772FD761CF6B2042EE0D3BCB201264B
:103D600000200B4DF607FF270237C10061188A19A2
:103D700081006B589A6069580F60401CC0B20428DB
:103D8000F3D30020FEBD032060720120FEBD0000C1
:103D900020BA00100010402F7047FFB50446FD48C0
:103DA000FD49007889B040000F5A40180397808879
:103DB00015461E4600900190E1B202AB04AAF748F6
:103DC00003F021FCE1B2F54803F0C7FB0790E1B234
:103DD000F24803F06EFC05903068E1B203B2286847
:103DE00002B2EE4803F055FCED490690884200DD32
:103DF0000691E1B2E94803F015FC06994018192133
:103E000007F02EFA401CE74A394614235943106044
:103E1000814200DA11600A98400740D468461021B8
:103E2000415E069128680090146879436043081841
:103E3000391907F015FA074668460821415E0891CE
:103E400003984143306801906043081803990919A9
:103E500007F006FA0599232915DD0699B94207D11D
:103E60000099B94201DD7F1C02E0B94200DA7F1EF1
:103E70000899814207D10199814201DD401C02E08D
:103E8000814200DA401E2F60306012980188079846
:103E900006F0A1FD1299088000200DB0F0BD694622
:103EA0001020085E00994843296861434018009932
:103EB000091907F0D5F9286069460820085E0199BC
:103EC00048433168614340180199091907F0C8F95E
:103ED000DAE7F7B5B44884B0C07F002802D00020EC
:103EE00007B0F0BD002A02D00224642001E00124C2
:103EF0000020AE49AF4DCB7D0193097E081800B27A
:103F00000290AB48AA8D017810466043009207F0FA
:103F1000A7F90746A8480178E88D0390604307F0A9
:103F20009FF906460498A1490068009A04B20598D2
:103F3000019B006805B2192008565108002B26DDA8
:103F4000BC4204DAE01B58438011C0190EE0121B7A
:103F5000BA4206DAD11B594389110098C919401A8F
:103F600004E00A1B504307F07BF9001904B28F49A3
:103F70001A2008568F49029AC98D4908002A23DD64
:103F8000B5420ADAA81B50438011801916E0BC42E2
:103F9000EDDBD21BA242E4DAE9E7039A521BB242FC
:103FA00007DA911B029A0398514389118919401A23
:103FB00004E04A1B504307F053F9401905B2049836
:103FC0000460059805608AE7B542F8DB039A921B06
:103FD000AA42EEDAF3E7FFB587B00D4614461E4657
:103FE000119F079807F0DAFA0090284607F0D6FAF2
:103FF0000190204607F0D2FA0290304607F0CEFA40
:104000000390109807F0CAFA0490384607F0C6FAF1
:104010000590BD4210DD1098001B07F0BFFA054661
:10402000B81B07F0BBFA294607F0BEF9074600990E
:1040300007F00AFC01990FE00798201A07F0AEFA82
:104040000746701B07F0AAFA394607F0ADF9074694
:10405000049907F0F9FB059907F0B0FB06463846CE
:10406000029907F0F1FB039907F046FC054678003A
:10407000000E0FD00121384607F09CFA044629466D
:10408000304607F045FC214607F08EF907F03CFA70
:104090000BB0F0BD2046FBE7F0B505460E4685B0F7
:1040A0001446981B07F07AFA029001900A99284664
:1040B000684349430746C81B07F070FA00900B9805
:1040C000801B07F06BFA039020466043381A07F014
:1040D00065FA0146039807F0B7FB07460099019877
:1040E00007F0B2FB394607F069FB00900B98301AD5
:1040F00007F054FA0190601B07F050FA06460A9840
:10410000029F401B07F04AFA0146384607F09CFB25
:1041100005463146019807F097FB294607F04EFB0C
:10412000012107F047FA01464000000E06D0009832
:1041300007F03AF907F0E8F905B0F0BD2046FBE7D3
:10414000F0B505AC70CC0022002804D1275E002F0A
:1041500000DA22801A80164F3F787F1EB84205D1C0
:104160000020185E002800DA1A802280002904D17D
:10417000705E002800DA32802A800F480078401CE8
:10418000814205D10020285E002800DA2A80328092
:10419000F0BD00000A02000074310000601C000045
:1041A000881300009802000028180000E03000008A
:1041B0001EBE00102C1A00001FBE0010F0B5944661
:1041C000FE4A0025FE4F54682B46FE56CA5C361840
:1041D0007600A65F5B1C564375195BB2042BF4DBBB
:1041E0004200A25E0B795A4355190523FE18203E62
:1041F0001F22B25616187600CA5CA65F5B1C564397
:1042000075195BB2092BF1DB6046054128B2BFE7A7
:10421000FFB589B006460D461F46002403AA04A92F
:1042200000B206F083FA002D22D0E54D01230321D0
:104230000422EB566956AA569B198919921906272A
:10424000EF57DE48BD1940682F041B047500DB0BD7
:104250001204455FC35A6E46B382D20B89B2825AAA
:1042600032834900415AB183F90B405A308444E00B
:104270007A7A39463046FFF7A1FF0546D04801213A
:1042800041567A7A881980B23946FFF797FF01467E
:1042900068468182CA48062141567A7A881980B2D6
:1042A0003946FFF78BFF014668460184C448032165
:1042B00041567A7A881980B23946FFF77FFF014666
:1042C00068468183BE48042141567A7A881980B2B3
:1042D0003946FFF773FF01466846018308AA05A91E
:1042E00006A86E4607C66846007B07AB41B2684623
:1042F000007C2A4640B2FFF723FF0B98C00758D036
:104300006A461C21515E18202B46105E994203DD3F
:104310000B46814200DA0346AB4AAA4E1278520895
:10432000029299420FD183420DD16846007C8100F0
:1043300089194A6812990A60029906F005FA00285C
:1043400000D00120A9E5A14A0746927A6846007C80
:10435000002A0BD080008446801982680197009261
:10436000426860463058FFF797FE0AE080008446B6
:104370008019826801970092426860463058FFF7C2
:104380002AFE002800DA0020914909788900725835
:104390008919496851184A10824200DC4810129964
:1043A00008606846007C029906F0CEF9002800D02B
:1043B00001240B98800755D568461421415E2026BC
:1043C0002B46865F994203DD0B46B14200DA334645
:1043D0007F487C4D0078C0354008029099420FD14B
:1043E000B3420DD16846017B88004019426813989A
:1043F0000260029806F0A8F90028A3D002204CE53C
:104400007248807A00286846007B09D080004219F3
:1044100097680097019652682858FFF73DFE08E01C
:104420008000421997680097019652682858FFF754
:10443000D2FD002800DA00206349097889006A5813
:104440004919496851184A10824200DC48101399F2
:1044500008606846017B029806F076F9002801D0D2
:10446000A41C24B2204618E5FEB50C4607460146BA
:104470001546524803F077F8064639464F4803F090
:104480005AF8410753480195009428D530214E43EE
:104490003618F088504B01220021FFF7B9FE0028A2
:1044A00001DB012807D1019500940122F0884A4BD5
:1044B0001146FFF7ADFE484B01950094F0880A3392
:1044C00002220021FFF7A4FE002801DB022821D1EF
:1044D000414B019500940A33F088022217E0302105
:1044E0004E433D4B3618F0880A3B03220021FFF76C
:1044F0008FFE002805DB012803D0022801D0032805
:1045000008D1354B01950094F0880A3B0322012124
:10451000FFF77EFEFEBDF0B50020AFB00746289045
:1045200001202C90FEF734F9851C002125900170A4
:1045300025984170684601724172284823912D9058
:1045400027482E90274827901C48239902F0E3FF24
:1045500000287DD06846017A1C488078814277D255
:104560001648239902F0E7FF04461448239902F005
:10457000DCFF2690E0066CD4269804287FD0032820
:104580007DD00E48239902F0EEFF30212990484358
:10459000104946187089C0B22890600702D4B089CB
:1045A00040077DD521AA22A92398FFF75DFF00903F
:1045B0000620305E2BAA2AA916E00000601C00002D
:1045C00074030000F8BB00101FBE00101030000084
:1045D0001EBE0010981100000ABE0010481800000E
:1045E000003100004C1A000006F0A0F800980028E6
:1045F00062DAB089400768D528A8007AFD498000B2
:10460000401827994068497E0841229028A8007BDD
:10461000F8498000C031401827994068897E0841D8
:1046200003B221902298239902B2F34802F0A6FF28
:10463000002221A922A8FFF74CFC2298002801DAC9
:1046400000202290ED49229A888D904204DC01E0FE
:1046500076E114E0401E22902198002801DA002023
:104660002190E6482199C08D884201DC401E2190AE
:104670002D98007800282ED0012831D045E0DE4862
:10468000239902F05EFF40122290DB48239902F04A
:104690005EFF40122190D848239902F05EFF00E0AF
:1046A00013E020A908822698042804D101220321BE
:1046B000D34806F071FAABE02798417E2298084172
:1046C00022902798817E2198A9E72820305E2290A9
:1046D0002A20305EA4E76846007A002804D014E05F
:1046E0006846007A022810D2219801AB01B22298C4
:1046F0006A4600B206F03EF86A4604210020515E88
:10470000105E06F0F4F920AA1082A0077DD548209B
:10471000044262D021AB22AAB748239902F0A3FF3A
:10472000B848C07F002841D1B748B84E0178F0881A
:1047300006F08CFD2299884204DD002221A922A8DE
:10474000FFF7C7FBB049F08809784A1E504306F0CE
:1047500087FD2299884204DA002221A922A8FFF7C6
:10476000B8FB37212198490188420FDD22464020BD
:10477000024021A922A8FFF7ACFBA34840784100E2
:10478000308906F063FD219940182190A0280DDAA8
:10479000012221A922A8FFF79CFB9B4840784100F9
:1047A000308906F053FD2199081A2190229800289B
:1047B00001DA002022909149229A888D904201DCF2
:1047C000401E22902198002801DA00202190C88DF7
:1047D0002199884201DC401E219020A8008A009087
:1047E0002198072103B22298019102B282482399AD
:1047F00002F0E7FE01220221814806F0CDF905F022
:104800001EF9002804D0299800E001E005F01DF908
:1048100026980026042801D0052801D1102601275A
:10482000A00702D50420064322E001212046C90248
:10483000084024A90091019021AB22AA2146239887
:10484000FFF7ABFA2198239903B2229802B26A4883
:1048500002F0CAFE0146082006436D480078420077
:104860006C48101800894043884203DC200601D4BC
:1048700001271CE02E98807A00280CD002280AD04C
:104880005D48239902F069FE014620A8008A06F0DF
:104890005FF9002800D1012720A8008A0421009098
:1048A000002301911A465448239902F08AFE219868
:1048B000239903B2229802B24F4802F095FE2C9839
:1048C000012810D120060ED520070CD401AB6A4672
:1048D0004948239902F097FE69460020085E22901D
:1048E0000420085E219020A8008A009021980721CA
:1048F00003B22298019102B23F48239902F061FE6F
:1049000045488178002924D0012731E0289848E0E3
:10491000022000E001206A46127A0C235A43521802
:10492000D0726A46127A23985A43511808736A461D
:10493000107A401C107208222F48239902F0A0FE22
:104940002398401CC0B223900C2800D2FCE5002420
:1049500047E0710702D5C179002909D0F10602D5D7
:10496000417A002904D03107E5D5007A0028E2D148
:104970006A46127A0C214A4302A9521822985080A2
:104980006A46107A0C2250434018219B838020AA4B
:10499000108A6A46127A0C235A435218D080002893
:1049A000B4D16A46127A0C235A435218108102205D
:1049B00006436A46107A5843401886726007A9D5A4
:1049C000A6E70C202146414302A80818022604212C
:1049D000865F031D821C415E304605F0CBFE641CE1
:1049E000E4B26846007AA042EBD8002F35D000210F
:1049F0002FE00000F8BB0010601C00002C1A000023
:104A0000F07F004028180000F43100001030000052
:104A10000A02000074310000D43000000C200A4665
:104A2000424302A8101842882A8082886A80C2887D
:104A3000AA800289AA71827AEA71C27A2A72007BFC
:104A400068722598259A00780A35401C491C107018
:104A5000C9B26846007A8842E0D8094802F058FD99
:104A6000002807D10748007841000748405A074905
:104A70004008086025990020085E2FB0F0BD0000B6
:104A8000601C00000A02000074310000980200005F
:104A900010B5642005F0CDFB10BD0000FFB58BB054
:104AA000159CE107C90F0919490008180930800849
:104AB000800004900C980818093080088000069047
:104AC00088180930800880000890C81809308008CC
:104AD00080000590F9486B4601780078C907C90F36
:104AE0000818801CC1B201201880801E588099804F
:104AF0004842D880481C1881481E5881CA439A8170
:104B00004042D8810C98002818D0002213E01046AB
:104B10004843049B4000C518069BC018079000201E
:104B200005E04300079FEE5A401CFE52C0B2A0426F
:104B3000F7D3521CD2B214988242E8D318980028B6
:104B40002BD0002084461E2322E0604648434200CA
:104B5000059810188646002214E007985500465F15
:104B6000179886420CDD0020754406E047006E462B
:104B7000F65F7600401CAB53C0B2169EB042F5D330
:104B8000521CD2B2A242E8D36046401CC0B2844656
:104B900014988445D9D30FB0F0BD002338E00C98A9
:104BA0000028184603D048434200069802E04843D4
:104BB000420004981018844618464843089A40005A
:104BC00082180792059A8018002209901CE055006F
:104BD0006046465F1798864214DD099E0020AE1994
:104BE0000A96079EAD19AE4609E047006D46ED5F97
:104BF00076466D000A9F765B401C7E53C0B2169DC0
:104C0000A842F2D3521CD2B2A242E0D35B1CDBB268
:104C100014988342C3D3BEE70022002801D0102895
:104C200000D10122002901D01C2900D1521C022AE6
:104C300001D00020704701207047002807D00F28BE
:104C400005D0002903D01B2901D000207047012086
:104C50007047FFB58CB01599169CCB07DB0F591820
:104C60004900081809308008800007900D9808183E
:104C7000093080088000089088180930800880007A
:104C80000B908E486A4601780078C907C90F08184A
:104C9000801CC1B201201080801E5080918048424B
:104CA0008C46D080491C11816046401E508161466F
:104CB000C94391814042D0810D98002817D000212E
:104CC00012E060464843079A40008518089A861803
:104CD000002004E04200AB5A401CB352C0B2159A07
:104CE0009042F7D3491CC9B20F988142E9D3002002
:104CF0006E46049064E00D9861460028049803D045
:104D000048434100089802E04843410007980D18C5
:104D100004986146484341000B980818069000200B
:104D200046E0059900204B00E95E0A918E465A192B
:104D30000146099209E04F00F75F099A7F00D25FB0
:104D4000724500DB9646491CC9B2A142F3D3179ABB
:104D5000002196460AE04F00F75F099A7F00D25F74
:104D6000724501DB401CC0B2491CC9B2A142F2D35A
:104D7000A04201D10A9812E06108491C814204D185
:104D800005990498FFF759FF07E0A108491C8142E3
:104D900008D105990498FFF73FFFE95A484306995F
:104DA000C85202E006980021C1520598401CC0B2CA
:104DB000159905908842B4D30498401CC0B2049061
:104DC0000F99884297D310B0F0BDFFB5DA07D20F24
:104DD000D2185200101809308008800086465018FA
:104DE000093087083548BF0001780078C907C90F26
:104DF0000818801CC0B28446002110E06046484379
:104E0000400072468518C619002004E04200AC5AE2
:104E1000401CB452C0B29842F8D3491CC9B202989F
:104E20008142EBD3FFBDF8B52449254B08780A78B9
:104E3000C007C00F80184200D21892089200801C50
:104E40000092C6B22048097800788E4641001F487B
:104E50001C4A08181778408A7743844600222AE0C3
:104E600000985100081800210B4605E05C00045F23
:104E7000002C00DD61189B19BB42F7DB614518DB94
:104E8000114B124C1B785D002D19ED884D43E11834
:104E9000897B0D4100210AE04B00C45E002C05DD3A
:104EA000AC4201DB641B00E00024C4528919B94202
:104EB000F2DB521CD2B27245D2D3F8BD1FBE001035
:104EC000994800401EBE00100A0200002C3000006D
:104ED000F0B55D4985B008780A78C007C00F801822
:104EE0005A4A127853005A4A9B1816229A5E009228
:104EF000584B4200D21892089200801CC0B2039016
:104F000055480192007802900E78002532E003980F
:104F10000022684341000198009B0C185B105B4223
:104F2000104611469C460BE05300E35E009FBB42D7
:104F300004DA9C4502DAC018491C09B2521C12B2AC
:104F4000B242F1DB06F08CF94049414B09784A0046
:104F5000D218528942435818007C0241002005E0D3
:104F60004100635A9B1A401C635200B2B042F7DB07
:104F70006D1C2DB202988542C9DB05B0F0BD70B53D
:104F8000FFF7A6FFFFF74FFF344802F0B9FB3348A5
:104F900002F00CFC05462C48314C03782E48214683
:104FA00002782C480938FFF710FF2A4603212046D3
:104FB00002F0CFFC2B482C4C00782C4D00280AD056
:104FC00000F014F80A20A076E0764B20C000208183
:104FD0006081022008E00420A0760520E076FF2012
:104FE0005F30208160811420287270BDF0B5174CAD
:104FF0001D4D2078144940004019808885B00978FB
:105000000A3800B20290042600911348144F01960A
:1050100003783A4616491046FFF71BFE2078002118
:1050200040004219905F084A3B4612780192039073
:105030000491094802960078064A0090093A0C4902
:105040001846FFF72BFD98E71FBE00100A0200006C
:105050002C300000994800401EBE00105C2000006B
:10506000D022004021020000843000000030000007
:10507000306C004010B5FE48FC49FE4B01601978C9
:105080001A78C907C90F8918FB4AFC4C8A1892087C
:10509000920042608A1C490009198908028189002E
:1050A000C1600282F6494161F6498161F6490162B7
:1050B000F649C161F649CA8882850989C185F548E2
:1050C0000178EB48203041751978817504214176CB
:1050D000817605F077FD10BDF0B5EF4F00238446D3
:1050E0005C1E3D787E7817E0E818C000C019407952
:1050F00088420FD1E81844B2E000C0190623C35E0D
:10510000934200DAC280037A5B1C037243899B18C6
:10511000438103E05B1CDBB29E42E5D8002C1DDA24
:10512000B8781E281AD2C000C019C280BB78604669
:10513000DB00DB191871B878C000C0194171B9786B
:105140000120C900C9190872B878C000C01942818D
:105150007878401C7870B878401CB870F0BD70B595
:1051600030256943046830396118048A1025544396
:10517000E418CC800024E4430C8101248C818A70E3
:105180000A700A71CB704B704B71455F5E005543DE
:105190006D00C068AD19405FC04D92005219486162
:1051A000526805465543EA178D61CA619A00BC4BA7
:1051B000D21852685043C2174A6208624C810020DC
:1051C0002031087370BD0022B349012803D08878CC
:1051D00008704A7070470A70FBE7F0B50546008A10
:1051E000A1B0C0B2109028890024C1B2AA480D9184
:1051F000847028462030427D1B92807D1F90A869D4
:10520000119068690B909C48921C26465143801F60
:1052100006F01AF840210B9806F014F8002030210F
:1052200041430C312A68401CC0B256521428F6D3B0
:10523000002098E10B99119811910B90402106F0F4
:1052400001F8002087E11099122248434100089894
:10525000AA5E40000818E96841180020085E8242F2
:105260007EDC089B119AD3185A78002A78D1109ABC
:105270001E2752000F928A1A1646203EF75F874279
:10528000EEDC0026965F8642EADC0226965F8642C6
:10529000E6DC0A46203A1E26965F8642E0DC0222C1
:1052A0008A5E8242DCDC01269E700F9A1E2752180D
:1052B0001346203BDF5F8742D2DC089F0B9BDE5505
:1052C0000F9BC95E8142CBDC089B0B99C9184E70BD
:1052D0000223D35E8342C3DC8E70142C7ED2601C0A
:1052E0002090C0B20990302128684C430419002056
:1052F0000C90E9690A980870296A089808700A9A57
:105300000D996B6851435A1808990998885409985F
:10531000FFF759FF2846089B0A9A0999FFF71FFFD4
:10532000802E01DB0C9608E1E9690C98095C12916A
:10533000296A095C1C91129910980D9A48431C998E
:10534000400049004018E9686B68401812994A43C8
:105350001C999A1851180022825E0E920C9A00E055
:10536000F6E0521C12B20C920F9A831A1718821E82
:10537000801C039000939C460D984B1E0292081AC5
:105380000D9A01978A181593139063469B1E0493F8
:10539000491C14921691BB1E0593411E63469B1C2B
:1053A00006931791BB1C511E401C521C19900020E3
:1053B00007931A92189107461E90B80013A91D90E2
:1053C00008580178002910D0099881420DD01D9A03
:1053D000684680580022825E0E9800E0B4E0824267
:1053E00000DD02460998FFF777FE1D9869460858C8
:1053F0000021415E0E98814208DD1D9813A90858CE
:1054000001780998814201D001201E907F1C7FB253
:10541000082FD2DB1E9800287ED1820013A989585C
:105420000B78002B79D16B469B5800221D939A5E16
:105430003223EB5E9A427BDB0E9B9A4278DC099A20
:105440000A7018490A5C1299511849B2EA698C46E7
:10545000915515490A5C1C99511849B22A6A8E4621
:105460009155761C36B2626900231FE09811000046
:105470002C1A00001FBE0010E6150040D922004083
:105480002410000064100000D0160000581700001F
:10549000103000001EBE0010A4100000F8BB001069
:1054A000B8BC001010020000180200001D99CB5E6D
:1054B000D11861616146F84A890089181D9A002354
:1054C0004968D35EE7695943A369CA17C9187A4185
:1054D000E261A1617146F14A890089181D9A002391
:1054E0004968D35E676A5943236ACA17C9187A4163
:1054F0006262216261890222491C6181A256614671
:10550000624500DAA170002161566246614500DD06
:1055100022700322A25601E00FE009E071467245B5
:1055200000DAE1700122A2567146724500DD617019
:10553000401C40B2082800DA6FE70C98B04200D057
:10554000EEE62098C4B203E01B980A901F980890DA
:105550000898401CC0B21F99089088420A9800D24F
:1055600071E6401CC0B21B990A90884200D261E6E5
:10557000204621B0F0BD30B5302413686043C01818
:105580000624045FD2686300D55E4B00D35EAB4255
:1055900002DB0481C18030BD0824045F002C03DBE2
:1055A0006400125F9342F6DD018130BDF7B5844699
:1055B0000C46029830250368614630206C43414315
:1055C000A646CA18E4185069656940195061906987
:1055D000A669D569E76986197D419661D561106A2A
:1055E000266A556A676A86197D4116625562D089B6
:1055F000E5894019D081108A258A40191082508986
:105600006589401950819089A58928431546908164
:105610002035287B401C28730020A0810220022511
:1056200010566557A84200DA957003250320555798
:105630002056854200DAD07070465D561856854275
:1056400000DD58540121012051562056814200DDD1
:10565000507006216046615EC0B2029AFFF78BFF70
:105660000821615E002904DB6046C0B2029AFFF7A0
:1056700082FFFEBDF8B50C46D9001546884B079A47
:10568000CF18002A26D0024669B260B2FFF78EFF1B
:105690000698834E401EC0B20690B0780822C00023
:1056A0008119091F381D05F067FDB078401EB070E4
:1056B00000200BE0C10089190A79AA4200D10C71BF
:1056C0004A79AA4200D14C71401C40B2B178814263
:1056D000F0DC1CE00668724808228078C10070483F
:1056E0000918091F381D05F047FD6D486C49807881
:1056F000401E887030204443A019828904210A4347
:10570000828130204543A81982890A438281069804
:10571000F8BDF7B5624F8AB0B8780E46002801D1BF
:105720006049087005F05DFA0A980A9D0468002037
:10573000203509E0C100C9190A79521E0A714A7957
:10574000521E401C4A71C0B2B9788142F2D8CAE0F8
:10575000002002900879302250430019428948798C
:105760003023584300194089101880B28446042021
:1057700008560490052008560190012032E048495F
:10578000C20051180A79302303925A4312195389DF
:105790004A79302700927A43121952899A1892B2A4
:1057A000624508D29446042202908A560492052249
:1057B0008A56019214E0624512D1049F039A384B35
:1057C000BA420DD1019F009ABA4209D106228A5EDF
:1057D0000299C900C9180623CB5E9A4200DACA8032
:1057E000401CC0B22E498A788242C8D80298042749
:1057F000C000401800900522C75782560392974276
:105800000DD188780F46C000C1190098091F001DEE
:10581000082205F0B1FCB878401EB87063E0039828
:10582000302148430119AB7E6A7E3020784300194D
:10583000049105900791099005F0E3F984460A98D0
:105840000621C26809980623415E48000799105E48
:10585000CB5E5900515E884200DD08466146002952
:1058600038DA11490978002908D1E97D0622414337
:10587000287E01410098825E914217DC094801228E
:105880000178491C0170A87E00906B7E04990598F0
:1058900005F00BFA25E00000F8BB0010B8BC0010C2
:1058A000A41000009C02000021020000A87E0090CD
:1058B0006B7E04220499059805F0F7F90CE001903D
:1058C00003980096C1B2FAB2029B0A98FFF7D2FE83
:1058D000064608E0480701D50020F0E76046C0070B
:1058E00001D00120EBE7F9498878002800D02FE7A4
:1058F00005F01CFA00273046009615E03021484399
:10590000001901908089C00708D109E03020784350
:1059100000198089C0070DD07F1C7FB2142FF5DBE2
:105920000098401CC0B200901428E7D30C990020C6
:10593000086044E030207843001930220199FAF7DA
:1059400087FE002001997F1C88817FB2E8E7302123
:1059500048430719B889C0072ED07A690192D31736
:10596000F969B86905F0D0FB6A7E05F067FB00B203
:1059700038850290019A796AD317386A05F0C4FB1A
:10598000AA7E05F05BFB78850A98029A818D00203B
:10599000491E04F00CFF38850A982A22C18DBA5E90
:1059A000491E002004F003FF78850C98016878698F
:1059B000814201DA0C9908600098401CC0B2009046
:1059C000B042C4D330460DB0F0BDFFB5FFB0844641
:1059D00098B014460020302103464B4361465918C5
:1059E0008A89D20720D04D89460068AA955386003F
:1059F00054AA4D699551C20004AD8E69AD18CF69A6
:105A0000C0C52CAF0D6ABA184E6A60C28D7882AAE2
:105A10001554CD788CAA15546246D35C87AA1354CA
:105A20004A7891A90A5403E00021430068AAD152A0
:105A3000401CC0B21428CED39899002089788E4695
:105A40000CE09899C20051184A7972AB521E1A5450
:105A500009797AAA491E1154401CC0B28645F0D873
:105A600000216EE09898CA0010180622825E9A986B
:105A7000824264DB72AD7AAB685C5A5C90425ED065
:105A8000470068ADBC46EE5B5300EF5AF619674617
:105A9000EE530026EE5254AB87009600DD599E5916
:105AA000AD19DD51C500AC4604AB63441F685E68A8
:105AB000D30004AD0093EB181D685B687F195E414D
:105AC00004AB63441F605E602CAB63441F685E6878
:105AD000009B2CADEB181D685B687F195E412CABF9
:105AE00063441F605E6082AB1D5C9E5CB54200D269
:105AF0001E548CAE355CB35C9D4200D2335487AEED
:105B0000355CB35C9D4200D9335491AD2B5CAA5CEB
:105B1000934200D92A54481CC0B272AA7AAE0CE053
:105B2000155C735C9D4201D1555C1554355C9D42FA
:105B300001D1535C3354401CC0B28645F0D8491C97
:105B4000C9B28E458ED80020208061486080002038
:105B5000632568AA54AB4100515A00290BD026880E
:105B6000B14201D9218005466688B14203D26180E5
:105B700081005958A160401CC0B21428EBD3632D9A
:105B80004ED0A8001A5862608CA8405DA07382A80D
:105B9000405D207391A8405DE07387A8405D60730D
:105BA00017464C480090407D00213A46FB1705F00F
:105BB00058FA0646E8000191029004A9454D0918DB
:105BC00003C9203DAA8D002305F04BFA3246019B04
:105BD00005F09AFA06B2268200980021807D3A46A6
:105BE000FB1705F03EFA0746009102982CA9091808
:105BF00003C9EA8D002305F034FA3A46009B05F00C
:105C000083FA00B26082002E01DA002103E0A98D40
:105C10008E4201DB491E2182002804DA00206082C6
:105C20007FB01CB0F0BDE98D8842F9DB491E61826E
:105C3000F6E7F3B50020284981B008602749864679
:105C4000274D0246086055E05000295E0023029867
:105C50001C4681424DDDD0B2844670460601019853
:105C600001218255019FF619317311463DE04F0025
:105C70000097EF5F5B1C381984B260464000285ED5
:105C80009BB2874201DDC8B28446009F02207F1983
:105C9000385E029FB84204DD12484F1C00788742EC
:105CA00022DBB38071706046B460B0700A480A4667
:105CB0000168994200D2036008480168A14200D2FD
:105CC00004607046401CC0B2864612E0A41000007A
:105CD0002F7500004C1A000024020000280200006A
