:100000004F42505F5241572056310D0A4134203241
:1000100046203331204141203230203134203245D6
:100020000D0A4235413333350D0A394537384134ED
:100030000D0A303034342030303030203030343914
:100040002030302030302030302030302030302010
:1000500030302030302030302030302030302030F0
:1000600030203030203030203030203030203030E0
:1000700020303020303020303020303020303020E0
:1000800030302030302030302030302030302030C0
:1000900030203030203030203030203030203030B0
:1000A00020303020303020303020303020303020B0
:1000B0003030203030203030203030203030203090
:1000C0003020303020303020303020303020303080
:1000D0002030302030302030302030302030302080
:1000E0003030203030203030203030203030203060
:1000F0003020303020303020303020303020303050
:10010000203030203030203030203030203030204F
:1001100030302030302030302030300D0A30303256
:100120003620303030302030303430203030203104
:1001300046204141203032203336203130203034C7
:1001400020304520303020303020303020303020FA
:1001500030302030302030302030302030302030EF
:1001600030203030203030203030203030203030DF
:1001700020303020303020303020303020303020DF
:1001800030302030302030302030302030302030BF
:1001900030203030203030203030203030203030AF
:1001A00020303020303020303020303020303020AF
:1001B000303020303020303020303020303020308F
:1001C000302030302030302030302030302030307F
:1001D000203030203030203030203030203030207F
:1001E00030302030302030302030300D0A30303484
:1001F0003720303030302030304338203030203617
:100200003420313420333220304120323220334305
:100210002031342031392030302033322031342025
:1002200031342030302030302031452033432030ED
:1002300046203030203032203032203134203030EF
:1002400020333220303220463020373820333220DD
:1002500030302030302030302030302036342031E3
:1002600034203332203041203232203343203134A5
:1002700020313920303020303020333220313420CA
:10028000313420303020303020314520334320308D
:10029000462030302030322030322031342030308F
:1002A000203332203032204630203738203332207D
:1002B0003030203030203830203030203530203081
:1002C0003020313920303320323220323820303063
:1002D0002030432030302030302031432030442043
:1002E000304320303020343620304120334320301A
:1002F0003520303020303120303020303020303048
:1003000020303620343320443220334320304620FE
:10031000303020303020383120323220303120301F
:100320003120303220303220303020303020303018
:100330002030342030312030312030312030312015
:1003400030302030302030302030302030302030FD
:1003500030203030203030203030203030203030ED
:1003600020303020303620303620303020303020E1
:1003700030302031342031342030432030302030B0
:10038000302030362030432030362030302030309E
:1003900020313420313420304320303020303020A0
:1003A0003031203032203030203035203030203095
:1003B0003020333220313920313420313420303173
:1003C000203032203030204646203030203030205F
:1003D000303020303020303020303020303020306D
:1003E0003020303120303020333520333720303446
:1003F0002030312030302030352030352031392048
:100400003030203030203044203043203034203011
:1004100031203030204646203030203030203030FF
:10042000203030203030203030203030203030202C
:1004300032442030302033352033372030302030E4
:1004400030203030203030203030203030203030FC
:100450002030300D0A3030364520303030302030FA
:1004600030323820373920303720383120303820AA
:100470003931203037204639203037203639203086
:10048000372041392030382032312030382043396C
:10049000203038203431203038203231203038209C
:1004A0003531203037204239203037203531203067
:1004B0003820423920303720393920303620303149
:1004C000203030203031203030203031203030208A
:1004D00030312030302030312030300D0A3030368D
:1004E000452030303031203030323820303020302C
:1004F000302030302030302030302030302030304C
:10050000203030203030203030203030203030204B
:10051000303020303020303020303020303020302B
:10052000302030302030302030302030302030301B
:10053000203030203030203030203030203030201B
:1005400030302030302030302030302030302030FB
:1005500030203030203030203030203030203030EB
:100560002030300D0A3030364520303030322030E7
:1005700030323820303020303020303020303020C1
:1005800030302030302030302030302030302030BB
:1005900030203030203030203030203030203030AB
:1005A00020303020303020303020303020303020AB
:1005B000303020303020303020303020303020308B
:1005C000302030302030302030302030302030307B
:1005D000203030203030203030203030203030207B
:1005E00030302030302030302030300D0A3030367E
:1005F0004520303030332030303238203531203013
:1006000037203439203038204139203037203631F6
:10061000203038204131203037203231203039200D
:1006200036392030382033312030392036392030E7
:1006300038203839203038203739203037204539B4
:1006400020303720393120303820323120303820E6
:1006500032312030372030312030302030312030DE
:1006600030203031203030203031203030203031D7
:100670002030300D0A3030364520303030342030D4
:1006800030323820303020303020303020303020B0
:1006900030302030302030302030302030302030AA
:1006A000302030302030302030302030302030309A
:1006B000203030203030203030203030203030209A
:1006C000303020303020303020303020303020307A
:1006D000302030302030302030302030302030306A
:1006E000203030203030203030203030203030206A
:1006F00030302030302030302030300D0A3030366D
:100700004520303030352030303238203030203005
:100710003020303020303020303020303020303029
:100720002030302030302030302030302030302029
:100730003030203030203030203030203030203009
:1007400030203030203030203030203030203030F9
:1007500020303020303020303020303020303020F9
:1007600030302030302030302030302030302030D9
:1007700030203030203030203030203030203030C9
:100780002030300D0A3030364520303030362030C1
:10079000303238204442203033204342203033204E
:1007A0004342203033204342203033204342203024
:1007B0003320424220303320433320303320424222
:1007C0002030332042422030332042332030332047
:1007D0004333203033204342203033204333203012
:1007E0003320433320303320443320303320303320
:1007F0002030302030332030302030332030302053
:1008000030332030302030332030300D0A30303655
:1008100045203030303720303032382030302030F2
:100820003020303020303020303020303020303018
:100830002030302030302030302030302030302018
:1008400030302030302030302030302030302030F8
:1008500030203030203030203030203030203030E8
:1008600020303020303020303020303020303020E8
:1008700030302030302030302030302030302030C8
:1008800030203030203030203030203030203030B8
:100890002030300D0A3030364520303030382030AE
:1008A000303238203030203030203030203030208E
:1008B0003030203030203030203030203030203088
:1008C0003020303020303020303020303020303078
:1008D0002030302030302030302030302030302078
:1008E0003030203030203030203030203030203058
:1008F0003020303020303020303020303020303048
:100900002030302030302030302030302030302047
:1009100030302030302030302030300D0A30303050
:1009200037203030303020303030352031302030FA
:10093000382031452043322030300D0A30303038F5
:1009400020303030302030303046203337203030C7
:1009500020303420303120303020303520303520E8
:1009600031392030302030302030422030312030BA
:10097000312030312038300D0A30303046203030D0
:100980003030203030304220303020303020303095
:1009900020303020303020303020303020303020B7
:1009A00030302030302030300D0A303031322030BD
:1009B00030303020303030322030302030300D0AAE
:1009C000303031332030303030203030303620304D
:1009D0003020303020303020303020303020303067
:1009E0000D0A303031392030303030203030313065
:1009F0002030332030302031382037392041382022
:100A00003631203030203030203030203030204619
:100A10004120383820313320303020303020303001
:100A20000D0A30303238203030303020303030371E
:100A300020333020304120304120314520314520C5
:100A400030302030310D0A303032412030303030FB
:100A500020303030452030312030302046462032A2
:100A60004420464620303520303020303020303091
:100A70002030302043382030332030302030300DCB
:100A80000A303032422030303030203030313120A6
:100A900030302030302030302030302030302030A6
:100AA0003020303020303020303020303020303096
:100AB0002030302030302030302030302030302096
:100AC00030300D0A30303245203030303020303078
:100AD0003043203030203030203041203041203031
:100AE000312030302030302033362030312030314A
:100AF0002030302030300D0A303032462030303057
:100B0000302030303246203030203030203030201D
:100B10003030203035203030203030203030203020
:100B20003020303020303020303020303020303015
:100B30002030302030302030302030302030302015
:100B400030302030302030302030302030302030F5
:100B500030203030203030203030203030203030E5
:100B600020303020303020303020303020303020E5
:100B700030302030302030302030302030302030C5
:100B800030203030203030203030203030203030B5
:100B90002030300D0A3030333820303030302030C3
:100BA0003032342030322030302030312032342086
:100BB0003041203039203039203039203039203050
:100BC0003920303820303820303820303820303844
:100BD0002030382030372030372030362030362053
:100BE000303620303520303420303420303520303D
:100BF000352030372030382030382030382030371A
:100C00002030372030302030302030302030300D50
:100C10000A3030334420303030302030303035200E
:100C200030332030302030302038382031330D0A36
:100C300030303344203030303120303030352030C7
:100C4000302030302030302030302030300D0A302D
:100C500030334420303030322030303035203030A6
:100C60002030302030302030302030300D0A30300D
:100C70003344203030303320303030352030302095
:100C800030302030302030302030300D0A303033DA
:100C90004420303030342030303035203030203077
:100CA000302030302030302030300D0A30303344A6
:100CB000203030303520303030352030302030306A
:100CC0002030302030302030300D0A3030343120A8
:100CD0003030303020303031372038312030432030
:100CE0003030203030203030203030203030203054
:100CF000302030302030302030462030302030302E
:100D00002030302030302030302030302031312041
:100D100030302030302030302030302030300D0A5C
:100D200030303431203030303120303031372030E5
:100D30003020303020303020303020303020303003
:100D40002030302030302030302030302030302003
:100D500030302030302030302030302030302030E3
:100D600030203030203030203030203030203030D3
:100D70002030300D0A3030343120303030322030E5
:100D800030313720303020303020303020303020AB
:100D900030302030302030302030302030302030A3
:100DA0003020303020303020303020303020303093
:100DB0002030302030302030302030302030302093
:100DC00030302030302030300D0A30303436203092
:100DD0003030302030303041203033204338203024
:100DE0003020323620303020303020334620303032
:100DF0002030302030300D0A303034362030303062
:100E00003120303030412030312037382030302010
:100E10003638203030203030203032203031203011
:100E2000302030370D0A3030343620303030322028
:100E300030303041203031203738203030203634C7
:100E400020303020303020314520304120303020DB
:100E500031310D0A303034362030303033203030EC
:100E600030412030302037382030302035302030AD
:100E700030203030203031203146203030203030AA
:100E80000D0A3030343620303030342030303041AC
:100E9000203031203732203030203638203030209A
:100EA00030302030322032302030302030370D0AC0
:100EB0003030343620303030352030303041203042
:100EC000312037322030302036342030302030305E
:100ED0002031452032412030302031310D0A303070
:100EE0003436203030303620303030412030302021
:100EF0003732203030203445203030203030203020
:100F0000302033452030302030300D0A3030343638
:100F100020303030372030303041203030203732F0
:100F2000203030203530203030203030203031201B
:100F300033462030302030300D0A30303436203007
:100F400030303820303030412030312030442030B3
:100F500030203638203030203030203032203430CD
:100F60002030302030370D0A3030343620303030E9
:100F70003920303030412030312030442030302092
:100F8000363420303020303020314520344120307C
:100F9000302031310D0A30303436203030304120AD
:100FA0003030304120303020304420303020344543
:100FB0002030302030302030302035452030302077
:100FC00030300D0A3030343620303030422030306E
:100FD0003041203030203044203030203530203037
:100FE0003020303020303120354620303020303035
:100FF0000D0A30303436203030304320303030412C
:101000002030312037392030302033442030302018
:1010100030302030312036302030302030300D0A52
:1010200030303436203030304420303030412030C1
:1010300031203733203030203344203030203030DE
:101040002030312036312030302030300D0A303021
:10105000343620303030452030303041203031209F
:1010600037382030302033442030302030302030AA
:10107000312036322030302030300D0A30303436D6
:10108000203030304620303030412030312037326F
:101090002030302033442030302030302030312098
:1010A00036332030302030300D0A303034362030A6
:1010B000303130203030304120303320433920303F
:1010C000302030382030302030302030322038434B
:1010D0002030302030370D0A303034362030303177
:1010E000312030303041203033204339203030201F
:1010F0003634203030203030203146203934203012
:10110000302030310D0A303034362030303132204A
:1011100030303041203031203136203030203245DF
:101120002030302030302030342036412030302004
:1011300030300D0A3030343620303031332030300A
:1011400030412030312031362030302034382030CA
:1011500030203030203133203642203030203030C3
:101160000D0A3030343620303031342030303041C8
:1011700020303120313820303020324520303020AE
:1011800030302030342036382030302030300D0AD6
:10119000303034362030303135203030304120305E
:1011A0003120313820303020343820303020303079
:1011B0002031332036392030302030300D0A3030A5
:1011C000343620303031362030303041203031203C
:1011D000313820303020363420303020303020324A
:1011E000422037392030302030300D0A303034364C
:1011F0002030303137203030304120303120314103
:10120000203030203438203030203030203133202E
:1012100036372030302030300D0A30303436203030
:1012200030313820303030412030332043392030C5
:1012300030203646203030203030203036203936CD
:101240002030302030460D0A3030343620303031F6
:1012500039203030304120303120314120303020B1
:1012600032452030302030302030342036362030A7
:10127000302030300D0A30303436203030314120CB
:101280003030304120303120314120303020363470
:10129000203030203030203242203738203030208B
:1012A00030300D0A3030343620303031422030308A
:1012B0003041203031203138203030203634203059
:1012C0003020303020323020374420303020303051
:1012D0000D0A303034362030303143203030304148
:1012E0002030312031412030302036342030302041
:1012F00030302032302037452030302030300D0A59
:1013000030303436203030314420303030412030DD
:10131000312031362030302036342030302030300B
:101320002032302037462030302030300D0A303027
:1013300034362030303145203030304120303020BC
:1013400031382030302034312030302030302030DF
:10135000312038322030302030300D0A30303436F1
:101360002030303146203030304120303020314183
:1013700020303020343120303020303020303120C7
:1013800038332030302030300D0A303034362030C1
:101390003032302030303041203030203136203073
:1013A000302034312030302030302030312038347B
:1013B0002030302030300D0A30303436203030329A
:1013C0003120303030412030312031382030302051
:1013D000343720303020303020344320383720302C
:1013E000302030300D0A3030343620303032322068
:1013F00030303041203031203141203030203437FE
:101400002030302030302034432038382030302015
:1014100030300D0A30303436203030323320303026
:1014200030412030312031362030302034372030E8
:1014300030203030203443203839203030203030D4
:101440000D0A3030343620303032342030303041E4
:1014500020303320434120303020303820303020BD
:1014600030302030322041362030302030370D0AE5
:10147000303034362030303235203030304120307A
:10148000332043412030302036342030302030307B
:101490002031462041452030302030310D0A303097
:1014A0003436203030323620303030412030332056
:1014B000434120303020364620303020303020303C
:1014C000362042302030302030460D0A303034365D
:1014D0002030303237203030304120303020303032
:1014E000203030203030203030203030203030205C
:1014F00030302030302030300D0A30303438203059
:1015000030303020303035392030422030302030FB
:101510003020303120303020303120303120303117
:10152000203031203038203233203030203030200D
:1015300030342032312032442036372030452030BC
:1015400030203031203039203030203030203030E1
:1015500020303020303020304120303020303020DA
:1015600030302030302030432030302030302030B8
:1015700030203030203030203030203046203030A5
:1015800020303920303020303020303020303020B2
:101590003030203043203030203030203030203088
:1015A0003020304320303020303020303020303078
:1015B0002030302030362031452033322030382062
:1015C0003430203743203530203936203134203133
:1015D000382031302031432030432032452031380B
:1015E0002031302031382030432031382030302035
:1015F000303120303020464620303020303020300E
:10160000302030302030302030302030302030302A
:101610002030300D0A30303444203030303020302B
:101620003030322030302030300D0A303034452018
:1016300030303030203030304320383420303520C6
:1016400030332030302031392030312031302030DB
:10165000302034362030302030302030300D0A3009
:10166000303446203030303020303030342030308C
:101670002030302030302030300D0A3030344620D9
:101680003030303120303030342030302030302095
:1016900030302030300D0A30303446203030303297
:1016A0002030303034203030203030203030203086
:1016B000300D0A303035302030303030203030308E
:1016C000452030312030302036452035302033322F
:1016D000204341203030203332203035203031203B
:1016E00030302030302030302030330D0A3030356B
:1016F0003120303030302030303132203030203026
:101700003020303020303020303020303020303029
:101710002030302030302030302030302030302029
:101720003030203030203030203030203030203009
:10173000300D0A303035312030303031203030310A
:1017400032203030203030203030203030203030E7
:1017500020303020303020303020303020303020E9
:1017600030302030302030302030302030302030C9
:10177000302030302030300D0A30303534203030D9
:101780003030203030303420303020303020303095
:101790002030300D0A3030354420303030302030A9
:1017A0003031452030452030302030302033372054
:1017B000303420303020303020374620303720463B
:1017C00046203046204646203046203030203634F1
:1017D0002030302031342030342030302030302060
:1017E000324320303120324320303120303020311C
:1017F000342030302031342030302030300D0A3069
:1018000030363320303030302030303043203030EC
:101810002030302030302030302030302030302028
:101820003030203030203030203030203030203008
:10183000300D0A3030363420303030302030303403
:1018400038203042203731203031203031203030C4
:1018500020303020304120383820303020314120B5
:101860003241203035203032203746203037203189
:101870003620323320313720333920303020304683
:10188000203241203044203039203337203034207A
:10189000323420333220304320303820314320305E
:1018A0004420304320303020343620304120334330
:1018B0002030352030302030312030302030302082
:1018C000303020303620343320443220334320302F
:1018D000462030302030382030302030302030303A
:1018E0002030342031362032332039412033422019
:1018F000314520333220303020303020303020301D
:1019000030203332204641203030203041203942CF
:101910002030302031382031340D0A303036352037
:1019200030303030203030323020303020303020F5
:1019300030302030302030302030302030302030F7
:1019400030203030203030203030203030203030E7
:1019500020303020303020303020303020303020E7
:1019600030302030302030302030302030302030C7
:1019700030203030203030203030203030203030B7
:101980002030302030302030300D0A3030363820D2
:101990003030303020303030422030312030302074
:1019A000353020303020313920303320323220326F
:1019B000382030302030432030330D0A3030364369
:1019C0002030303030203030344220394420303024
:1019D0002030302030312030312030302030302065
:1019E0003034203030203030203030203030203043
:1019F0003020303020303020303020303020303037
:101A0000203030203138203030203030203030202D
:101A1000303020313820303020303020303020300D
:101A200030203030203030203036203030203031FF
:101A30002030302030302030302030302030302006
:101A400032302030302030302030302030302032E2
:101A500030203030203030203030203030203030D6
:101A600020303320304320363420303120303020B5
:101A700030302030302030302030302033302030B3
:101A800030203030203030203030203330203030A3
:101A900020303020303020303020303020313420A1
:101AA00030302038352030302030300D0A3030369C
:101AB0004420303030302030303039203432203043
:101AC0003020303520303020303020303020303061
:101AD0002030302030330D0A303036462030303060
:101AE000302030303230203030203030203343202E
:101AF000353020313820313820303420303120301A
:101B000030204646203030203030203030203030F9
:101B1000203030203030203030203030203244200F
:101B200030302033352033372030302032462030DB
:101B300031203031203041203030203030203030E2
:101B40002030302031340D0A3030364620303030ED
:101B500031203030323020303020303020303020D2
:101B600030302030302030302030302030302030C5
:101B700030203030203030203030203030203030B5
:101B800020303020303020303020303020303020B5
:101B90003030203030203030203030203030203095
:101BA0003020303020303020303020303020303085
:101BB0002030302030300D0A303036462030303082
:101BC000322030303230203030203030203343204B
:101BD000353020323020323020303020303020304C
:101BE0003020303020303020303020303020303045
:101BF0002030302030302030302030302030302045
:101C0000303020303020303020303020324620300C
:101C10003120303120303020303020303020303012
:101C20002030302030300D0A303037302030303026
:101C300030203030303520303020303020303020EF
:101C400030302030300D0A303037302030303031F5
:101C500020303030352030302030302030302030CF
:101C6000302030300D0A30303731203030303020E5
:101C7000303030332030352030302030370D0A30CE
:101C80003037332030303030203030313420303471
:101C9000203030203030204646204646203030204C
:101CA0003030204646204646203530203030203621
:101CB0003420303020303220334520303220303054
:101CC0002038362030302032330D0A30303734207F
:101CD0003030303020303046462030302030322016
:101CE0003041203232203635203534203633203210
:101CF00034204136203035203232203635203534FC
:101D00002036332032342035362030442032322001
:101D100037412036342036332032342035352030D8
:101D200039203134203635203334203436203032D7
:101D300020323620304120323220373320363320D3
:101D400036342032332031362030302034322036C1
:101D5000442034352034362032362031352030309E
:101D6000203033203644203635203635203032209E
:101D7000313620304220323320364420343520346E
:101D80003620323620313720303820323220364467
:101D9000203435203536203634203032203037207C
:101DA0003035203033203838203436203335203455
:101DB000362030322031362030342030332037374F
:101DC000203436203435203235203135203034204F
:101DD000303320373720353620343520303220312B
:101DE0003520303420303320373720343620343615
:101DF0002030322031352030342030332037372026
:101E00003536203436203032203135203034203001
:101E100033203737203536203536203032203535DF
:101E200020303020303020303820343620333520F8
:101E300030322039352030322030302030382033D5
:101E400036203435203032204335203030203530B4
:101E500020303820343620333520303220343520BD
:101E600030302035302030382033362034352030A3
:101E70003220333520303020303520303820343691
:101E8000203435203032203335203030203035209A
:101E9000303820333620343520303220343620306C
:101EA000302032302030382033352034362032355F
:101EB0002035352030412032322037332036332050
:101EC0003334203032203435203042203131203636
:101ED0003320333520343620303220343420304122
:101EE0002031312036332036332032342030352033
:101EF00038302032322036462034362033352030F8
:101F000032203035203830203232203646203336E9
:101F100020343520303220393520304420323220F0
:101F200037412036342034332030322032342030D0
:101F300041203232203733203633203233203234BE
:101F400020304120323220373320343320323320C6
:101F50003934203044203332203741203634203287
:101F60003420393420304420323220374120333479
:101F7000203234203033203037203332203736209F
:101F8000353620303220443520304220333320375C
:101F9000412034352034362030322030302030306B
:101FA0002030302030302030302030302030302091
:101FB0003030203030203030203030203030203071
:101FC0003020303020303020303020303020303061
:101FD0002030302030300D0A30303739203030306A
:101FE0003020303030332030302030302030300D51
:101FF0000A30303743203030303020303030372016
:1020000030422030312030352030342031422034ED
:10201000312039360D0A303037442030303030200E
:10202000303030312030300D0A303038322030300E
:1020300030302030303036203831203238203036C1
:0B2040002030412030322030410D0ADA
:00000001FF
